{
  "_format": "hh-sol-artifact-1",
  "contractName": "TokenQuery",
  "sourceName": "contracts/NFTquery.sol",
  "abi": [
    {
      "inputs": [
        {
          "internalType": "address",
          "name": "nftCollection",
          "type": "address"
        },
        {
          "internalType": "address",
          "name": "owner",
          "type": "address"
        }
      ],
      "name": "getTokenIds",
      "outputs": [
        {
          "internalType": "uint256[]",
          "name": "",
          "type": "uint256[]"
        }
      ],
      "stateMutability": "view",
      "type": "function"
    }
  ],
  "bytecode": "0x608060405234801561001057600080fd5b5061017f806100206000396000f3fe608060405234801561001057600080fd5b506004361061002b5760003560e01c8063d190c1d914610030575b600080fd5b61004361003e3660046100fb565b610059565b604051610050919061012e565b60405180910390f35b60606370a0823160e01b608052816084526020600060246080865afa60005160405181815260208202806020018201604052632f745c5960e01b6080528560845260005b838110156100ca578060a45260206000606460808b5afa600051602083810286010152945060010161009d565b508060200182f35b803573ffffffffffffffffffffffffffffffffffffffff811681146100f657600080fd5b919050565b6000806040838503121561010e57600080fd5b610117836100d2565b9150610125602084016100d2565b90509250929050565b6020808252825182820181905260009190848201906040850190845b818110156101665783518352928401929184019160010161014a565b5090969550505050505056fea164736f6c6343000817000a",
  "linkReferences": {},
  "deployedLinkReferences": {}
}