{
  "_format": "hh-sol-artifact-1",
  "contractName": "AstraIntelCollect",
  "sourceName": "contracts/AstraIntelCollect.sol",
  "abi": [
    {
      "inputs": [
        {
          "internalType": "address",
          "name": "_vizingPad",
          "type": "address"
        },
        {
          "internalType": "uint64",
          "name": "_chainId",
          "type": "uint64"
        },
        {
          "internalType": "address",
          "name": "_whitelistAddr",
          "type": "address"
        }
      ],
      "stateMutability": "nonpayable",
      "type": "constructor"
    },
    {
      "inputs": [],
      "name": "LandingPadAccessDenied",
      "type": "error"
    },
    {
      "inputs": [],
      "name": "NotImplement",
      "type": "error"
    },
    {
      "inputs": [
        {
          "internalType": "address",
          "name": "owner",
          "type": "address"
        }
      ],
      "name": "OwnableInvalidOwner",
      "type": "error"
    },
    {
      "inputs": [
        {
          "internalType": "address",
          "name": "account",
          "type": "address"
        }
      ],
      "name": "OwnableUnauthorizedAccount",
      "type": "error"
    },
    {
      "anonymous": false,
      "inputs": [
        {
          "indexed": true,
          "internalType": "address",
          "name": "sender",
          "type": "address"
        },
        {
          "indexed": false,
          "internalType": "uint256",
          "name": "boostCount",
          "type": "uint256"
        },
        {
          "indexed": false,
          "internalType": "uint256",
          "name": "consecutiveDays",
          "type": "uint256"
        },
        {
          "indexed": false,
          "internalType": "uint256",
          "name": "latestCollectTime",
          "type": "uint256"
        }
      ],
      "name": "IntelCollect",
      "type": "event"
    },
    {
      "anonymous": false,
      "inputs": [
        {
          "indexed": true,
          "internalType": "address",
          "name": "previousOwner",
          "type": "address"
        },
        {
          "indexed": true,
          "internalType": "address",
          "name": "newOwner",
          "type": "address"
        }
      ],
      "name": "OwnershipTransferred",
      "type": "event"
    },
    {
      "inputs": [],
      "name": "LandingPad",
      "outputs": [
        {
          "internalType": "contract IMessageChannel",
          "name": "",
          "type": "address"
        }
      ],
      "stateMutability": "view",
      "type": "function"
    },
    {
      "inputs": [],
      "name": "LaunchPad",
      "outputs": [
        {
          "internalType": "contract IMessageChannel",
          "name": "",
          "type": "address"
        }
      ],
      "stateMutability": "view",
      "type": "function"
    },
    {
      "inputs": [],
      "name": "defaultBridgeMode",
      "outputs": [
        {
          "internalType": "bytes1",
          "name": "",
          "type": "bytes1"
        }
      ],
      "stateMutability": "view",
      "type": "function"
    },
    {
      "inputs": [
        {
          "internalType": "uint256",
          "name": "value",
          "type": "uint256"
        },
        {
          "internalType": "uint64",
          "name": "destChainid",
          "type": "uint64"
        },
        {
          "internalType": "bytes",
          "name": "additionParams",
          "type": "bytes"
        },
        {
          "internalType": "bytes",
          "name": "message",
          "type": "bytes"
        }
      ],
      "name": "estimateVizingGasFee",
      "outputs": [
        {
          "internalType": "uint256",
          "name": "vizingGasFee",
          "type": "uint256"
        }
      ],
      "stateMutability": "view",
      "type": "function"
    },
    {
      "inputs": [
        {
          "internalType": "address",
          "name": "userAddress",
          "type": "address"
        }
      ],
      "name": "getUserInfo",
      "outputs": [
        {
          "internalType": "uint256",
          "name": "latestBoostTime",
          "type": "uint256"
        },
        {
          "internalType": "uint256",
          "name": "boostCount",
          "type": "uint256"
        },
        {
          "internalType": "uint256",
          "name": "consecutiveDays",
          "type": "uint256"
        }
      ],
      "stateMutability": "view",
      "type": "function"
    },
    {
      "inputs": [],
      "name": "maxArrivalTime",
      "outputs": [
        {
          "internalType": "uint64",
          "name": "",
          "type": "uint64"
        }
      ],
      "stateMutability": "view",
      "type": "function"
    },
    {
      "inputs": [],
      "name": "maxGasLimit",
      "outputs": [
        {
          "internalType": "uint24",
          "name": "",
          "type": "uint24"
        }
      ],
      "stateMutability": "view",
      "type": "function"
    },
    {
      "inputs": [],
      "name": "minArrivalTime",
      "outputs": [
        {
          "internalType": "uint64",
          "name": "",
          "type": "uint64"
        }
      ],
      "stateMutability": "view",
      "type": "function"
    },
    {
      "inputs": [],
      "name": "minGasLimit",
      "outputs": [
        {
          "internalType": "uint24",
          "name": "",
          "type": "uint24"
        }
      ],
      "stateMutability": "view",
      "type": "function"
    },
    {
      "inputs": [],
      "name": "owner",
      "outputs": [
        {
          "internalType": "address",
          "name": "",
          "type": "address"
        }
      ],
      "stateMutability": "view",
      "type": "function"
    },
    {
      "inputs": [],
      "name": "participantCount",
      "outputs": [
        {
          "internalType": "uint256",
          "name": "",
          "type": "uint256"
        }
      ],
      "stateMutability": "view",
      "type": "function"
    },
    {
      "inputs": [
        {
          "internalType": "uint64",
          "name": "srcChainId",
          "type": "uint64"
        },
        {
          "internalType": "uint256",
          "name": "srcContract",
          "type": "uint256"
        },
        {
          "internalType": "bytes",
          "name": "message",
          "type": "bytes"
        }
      ],
      "name": "receiveStandardMessage",
      "outputs": [],
      "stateMutability": "payable",
      "type": "function"
    },
    {
      "inputs": [],
      "name": "renounceOwnership",
      "outputs": [],
      "stateMutability": "nonpayable",
      "type": "function"
    },
    {
      "inputs": [],
      "name": "selectedRelayer",
      "outputs": [
        {
          "internalType": "address",
          "name": "",
          "type": "address"
        }
      ],
      "stateMutability": "view",
      "type": "function"
    },
    {
      "inputs": [
        {
          "internalType": "uint64",
          "name": "_chainId",
          "type": "uint64"
        },
        {
          "internalType": "address",
          "name": "_addr",
          "type": "address"
        }
      ],
      "name": "setWhitelist",
      "outputs": [],
      "stateMutability": "nonpayable",
      "type": "function"
    },
    {
      "inputs": [
        {
          "internalType": "address",
          "name": "newOwner",
          "type": "address"
        }
      ],
      "name": "transferOwnership",
      "outputs": [],
      "stateMutability": "nonpayable",
      "type": "function"
    }
  ],
  "bytecode": "0x608060405234801561001057600080fd5b50604051610e1e380380610e1e83398101604081905261002f91610139565b828080338061005857604051631e4fbdf760e01b81526000600482015260240160405180910390fd5b610061816100cd565b50600180546001600160a01b0319166001600160a01b03831617905550600280546001600160a01b0319166001600160a01b03831617905550506001600160a01b0316600555600480546001600160401b0319166001600160401b03929092169190911790555061018b565b600080546001600160a01b038381166001600160a01b0319831681178455604051919092169283917f8be0079c531659141344cd1fd0a4f28419497f9722a3daafe3b4186f6b6457e09190a35050565b80516001600160a01b038116811461013457600080fd5b919050565b60008060006060848603121561014e57600080fd5b6101578461011d565b60208501519093506001600160401b038116811461017457600080fd5b91506101826040850161011d565b90509250925092565b610c848061019a6000396000f3fe6080604052600436106100f25760003560e01c8063715018a61161008a578063b0cfd4d211610059578063b0cfd4d21461028e578063de8aeda014610187578063e0b838e9146102a2578063f2fde38b146102cf57600080fd5b8063715018a61461020e57806376c81312146102235780637d7f631c146102435780638da5cb5b1461026357600080fd5b80635ad3ad06116100c65780635ad3ad06146101875780635aeb4d77146101875780635e45da23146101875780636386c1c7146101a357600080fd5b806273b555146100f75780630e82845d1461010c578063362f04c0146101635780634563627914610187575b600080fd5b61010a6101053660046109ba565b6102ef565b005b34801561011857600080fd5b506002546101399073ffffffffffffffffffffffffffffffffffffffff1681565b60405173ffffffffffffffffffffffffffffffffffffffff90911681526020015b60405180910390f35b34801561016f57600080fd5b5061017960065481565b60405190815260200161015a565b34801561019357600080fd5b506040516000815260200161015a565b3480156101af57600080fd5b506101f36101be366004610a38565b73ffffffffffffffffffffffffffffffffffffffff166000908152600360205260409020805460018201546002909201549092565b6040805193845260208401929092529082015260600161015a565b34801561021a57600080fd5b5061010a610352565b34801561022f57600080fd5b5061017961023e366004610a5a565b610366565b34801561024f57600080fd5b5061010a61025e366004610ae4565b6103e8565b34801561026f57600080fd5b5060005473ffffffffffffffffffffffffffffffffffffffff16610139565b34801561029a57600080fd5b506000610139565b3480156102ae57600080fd5b506001546101399073ffffffffffffffffffffffffffffffffffffffff1681565b3480156102db57600080fd5b5061010a6102ea366004610a38565b610444565b60025473ffffffffffffffffffffffffffffffffffffffff163314610340576040517ffb2541ea00000000000000000000000000000000000000000000000000000000815260040160405180910390fd5b61034c848484846104ad565b50505050565b61035a61060c565b610364600061065f565b565b60006103dd878787878080601f01602080910402602001604051908101604052809392919081815260200183838082843760009201919091525050604080516020601f8b0181900481028201810190925289815292508991508890819084018382808284376000920191909152506106d492505050565b979650505050505050565b6103f061060c565b73ffffffffffffffffffffffffffffffffffffffff16600555600480547fffffffffffffffffffffffffffffffffffffffffffffffff00000000000000001667ffffffffffffffff92909216919091179055565b61044c61060c565b73ffffffffffffffffffffffffffffffffffffffff81166104a1576040517f1e4fbdf7000000000000000000000000000000000000000000000000000000008152600060048201526024015b60405180910390fd5b6104aa8161065f565b50565b60045467ffffffffffffffff858116911614610525576040517f08c379a000000000000000000000000000000000000000000000000000000000815260206004820152601e60248201527f41737472613a2076697a696e6720636861696e4964206d69736d6174636800006044820152606401610498565b60055483146105b6576040517f08c379a000000000000000000000000000000000000000000000000000000000815260206004820152602260248201527f41737472613a2077686974656c69737420636f6e7472616374206d69736d617460448201527f63680000000000000000000000000000000000000000000000000000000000006064820152608401610498565b60008083838080601f0160208091040260200160405190810160405280939291908181526020018383808284376000920191909152505050506014810151925090506106018261077b565b505050505050505050565b60005473ffffffffffffffffffffffffffffffffffffffff163314610364576040517f118cdaa7000000000000000000000000000000000000000000000000000000008152336004820152602401610498565b6000805473ffffffffffffffffffffffffffffffffffffffff8381167fffffffffffffffffffffffff0000000000000000000000000000000000000000831681178455604051919092169283917f8be0079c531659141344cd1fd0a4f28419497f9722a3daafe3b4186f6b6457e09190a35050565b6001546040517f85fdd54200000000000000000000000000000000000000000000000000000000815260009173ffffffffffffffffffffffffffffffffffffffff16906385fdd54290610731908890889088908890600401610b7b565b602060405180830381865afa15801561074e573d6000803e3d6000fd5b505050506040513d601f19601f820116820180604052508101906107729190610bb6565b95945050505050565b73ffffffffffffffffffffffffffffffffffffffff8116600090815260036020526040812080548291829185919015806107c4575080546107c0906201518090610bfe565b4210155b610850576040517f08c379a000000000000000000000000000000000000000000000000000000000815260206004820152603760248201527f41737472613a20496e74656c2063616e206f6e6c7920626520636f6c6c65637460448201527f6564206f6e636520657665727920323420686f7572732e0000000000000000006064820152608401610498565b8060010154600003610872576006805490600061086c83610c17565b91905055505b610880620151806002610c4f565b81546108929163ffffffff1690610bfe565b4210156108b5576002810180549060006108ab83610c17565b91905055506108bd565b600160028201555b4281556001810180549060006108d283610c17565b909155505060018101546002820154604080519283526020830191909152429082015273ffffffffffffffffffffffffffffffffffffffff8316907f61dedd4ec0f071457d05377519e1a1dedfbb8997200d2943f7de0a3a3687893f9060600160405180910390a2805460018201546002909201549097919650945092505050565b803567ffffffffffffffff8116811461096c57600080fd5b919050565b60008083601f84011261098357600080fd5b50813567ffffffffffffffff81111561099b57600080fd5b6020830191508360208285010111156109b357600080fd5b9250929050565b600080600080606085870312156109d057600080fd5b6109d985610954565b935060208501359250604085013567ffffffffffffffff8111156109fc57600080fd5b610a0887828801610971565b95989497509550505050565b803573ffffffffffffffffffffffffffffffffffffffff8116811461096c57600080fd5b600060208284031215610a4a57600080fd5b610a5382610a14565b9392505050565b60008060008060008060808789031215610a7357600080fd5b86359550610a8360208801610954565b9450604087013567ffffffffffffffff80821115610aa057600080fd5b610aac8a838b01610971565b90965094506060890135915080821115610ac557600080fd5b50610ad289828a01610971565b979a9699509497509295939492505050565b60008060408385031215610af757600080fd5b610b0083610954565b9150610b0e60208401610a14565b90509250929050565b6000815180845260005b81811015610b3d57602081850181015186830182015201610b21565b5060006020828601015260207fffffffffffffffffffffffffffffffffffffffffffffffffffffffffffffffe0601f83011685010191505092915050565b84815267ffffffffffffffff84166020820152608060408201526000610ba46080830185610b17565b82810360608401526103dd8185610b17565b600060208284031215610bc857600080fd5b5051919050565b7f4e487b7100000000000000000000000000000000000000000000000000000000600052601160045260246000fd5b80820180821115610c1157610c11610bcf565b92915050565b60007fffffffffffffffffffffffffffffffffffffffffffffffffffffffffffffffff8203610c4857610c48610bcf565b5060010190565b63ffffffff818116838216028082169190828114610c6f57610c6f610bcf565b50509291505056fea164736f6c6343000817000a",
  "linkReferences": {},
  "deployedLinkReferences": {}
}