{
  "_format": "hh-sol-artifact-1",
  "contractName": "AstraRewards",
  "sourceName": "contracts/AstraRewards.sol",
  "abi": [
    {
      "inputs": [
        {
          "internalType": "address",
          "name": "owner_",
          "type": "address"
        },
        {
          "internalType": "address[]",
          "name": "signers_",
          "type": "address[]"
        },
        {
          "internalType": "address",
          "name": "rewardToken_",
          "type": "address"
        }
      ],
      "stateMutability": "nonpayable",
      "type": "constructor"
    },
    {
      "inputs": [
        {
          "internalType": "address",
          "name": "target",
          "type": "address"
        }
      ],
      "name": "AddressEmptyCode",
      "type": "error"
    },
    {
      "inputs": [
        {
          "internalType": "address",
          "name": "account",
          "type": "address"
        }
      ],
      "name": "AddressInsufficientBalance",
      "type": "error"
    },
    {
      "inputs": [],
      "name": "ECDSAInvalidSignature",
      "type": "error"
    },
    {
      "inputs": [
        {
          "internalType": "uint256",
          "name": "length",
          "type": "uint256"
        }
      ],
      "name": "ECDSAInvalidSignatureLength",
      "type": "error"
    },
    {
      "inputs": [
        {
          "internalType": "bytes32",
          "name": "s",
          "type": "bytes32"
        }
      ],
      "name": "ECDSAInvalidSignatureS",
      "type": "error"
    },
    {
      "inputs": [],
      "name": "FailedInnerCall",
      "type": "error"
    },
    {
      "inputs": [
        {
          "internalType": "address",
          "name": "owner",
          "type": "address"
        }
      ],
      "name": "OwnableInvalidOwner",
      "type": "error"
    },
    {
      "inputs": [
        {
          "internalType": "address",
          "name": "account",
          "type": "address"
        }
      ],
      "name": "OwnableUnauthorizedAccount",
      "type": "error"
    },
    {
      "inputs": [],
      "name": "ReentrancyGuardReentrantCall",
      "type": "error"
    },
    {
      "inputs": [
        {
          "internalType": "address",
          "name": "token",
          "type": "address"
        }
      ],
      "name": "SafeERC20FailedOperation",
      "type": "error"
    },
    {
      "anonymous": false,
      "inputs": [
        {
          "indexed": true,
          "internalType": "uint256",
          "name": "value",
          "type": "uint256"
        },
        {
          "indexed": true,
          "internalType": "address",
          "name": "winner",
          "type": "address"
        }
      ],
      "name": "Claim",
      "type": "event"
    },
    {
      "anonymous": false,
      "inputs": [
        {
          "indexed": true,
          "internalType": "address",
          "name": "previousOwner",
          "type": "address"
        },
        {
          "indexed": true,
          "internalType": "address",
          "name": "newOwner",
          "type": "address"
        }
      ],
      "name": "OwnershipTransferred",
      "type": "event"
    },
    {
      "inputs": [],
      "name": "astra",
      "outputs": [
        {
          "internalType": "string",
          "name": "",
          "type": "string"
        }
      ],
      "stateMutability": "pure",
      "type": "function"
    },
    {
      "inputs": [
        {
          "components": [
            {
              "internalType": "uint256",
              "name": "value",
              "type": "uint256"
            },
            {
              "internalType": "uint64",
              "name": "expiredTimestamp",
              "type": "uint64"
            },
            {
              "internalType": "uint64",
              "name": "flag",
              "type": "uint64"
            }
          ],
          "internalType": "struct AstraRewards.Card",
          "name": "card",
          "type": "tuple"
        },
        {
          "internalType": "bytes",
          "name": "sign",
          "type": "bytes"
        }
      ],
      "name": "claim",
      "outputs": [],
      "stateMutability": "nonpayable",
      "type": "function"
    },
    {
      "inputs": [
        {
          "internalType": "address",
          "name": "winner",
          "type": "address"
        },
        {
          "components": [
            {
              "internalType": "uint256",
              "name": "value",
              "type": "uint256"
            },
            {
              "internalType": "uint64",
              "name": "expiredTimestamp",
              "type": "uint64"
            },
            {
              "internalType": "uint64",
              "name": "flag",
              "type": "uint64"
            }
          ],
          "internalType": "struct AstraRewards.Card",
          "name": "card",
          "type": "tuple"
        }
      ],
      "name": "encodeCard",
      "outputs": [
        {
          "internalType": "bytes32",
          "name": "data",
          "type": "bytes32"
        }
      ],
      "stateMutability": "view",
      "type": "function"
    },
    {
      "inputs": [],
      "name": "owner",
      "outputs": [
        {
          "internalType": "address",
          "name": "",
          "type": "address"
        }
      ],
      "stateMutability": "view",
      "type": "function"
    },
    {
      "inputs": [],
      "name": "renounceOwnership",
      "outputs": [],
      "stateMutability": "nonpayable",
      "type": "function"
    },
    {
      "inputs": [
        {
          "internalType": "address",
          "name": "token",
          "type": "address"
        }
      ],
      "name": "setRewardToken",
      "outputs": [],
      "stateMutability": "nonpayable",
      "type": "function"
    },
    {
      "inputs": [
        {
          "internalType": "address[]",
          "name": "signers",
          "type": "address[]"
        },
        {
          "internalType": "bool[]",
          "name": "status",
          "type": "bool[]"
        }
      ],
      "name": "setSigners",
      "outputs": [],
      "stateMutability": "nonpayable",
      "type": "function"
    },
    {
      "inputs": [
        {
          "internalType": "address",
          "name": "newOwner",
          "type": "address"
        }
      ],
      "name": "transferOwnership",
      "outputs": [],
      "stateMutability": "nonpayable",
      "type": "function"
    },
    {
      "inputs": [
        {
          "internalType": "address",
          "name": "token",
          "type": "address"
        },
        {
          "internalType": "uint256",
          "name": "amount",
          "type": "uint256"
        }
      ],
      "name": "withdraw",
      "outputs": [],
      "stateMutability": "nonpayable",
      "type": "function"
    },
    {
      "stateMutability": "payable",
      "type": "receive"
    }
  ],
  "bytecode": "0x60806040523480156200001157600080fd5b5060405162001655380380620016558339810160408190526200003491620002a3565b826001600160a01b0381166200006557604051631e4fbdf760e01b8152600060048201526024015b60405180910390fd5b620000708162000220565b50600180556001600160a01b038316620000cd5760405162461bcd60e51b815260206004820152601460248201527f41737472613a206f776e6572206973207a65726f00000000000000000000000060448201526064016200005c565b6001600160a01b038116620001255760405162461bcd60e51b815260206004820152601960248201527f41737472613a2072657761726420746f6b656e20656d7074790000000000000060448201526064016200005c565b600280546001600160a01b0319166001600160a01b03831617905560005b8251811015620002165760006001600160a01b03168382815181106200016d576200016d6200039e565b60200260200101516001600160a01b031603620001c05760405162461bcd60e51b815260206004820152601060248201526f20b9ba39309d1037379039b4b3b732b960811b60448201526064016200005c565b600160036000858481518110620001db57620001db6200039e565b6020908102919091018101516001600160a01b03168252810191909152604001600020805460ff191691151591909117905560010162000143565b50505050620003b4565b600080546001600160a01b038381166001600160a01b0319831681178455604051919092169283917f8be0079c531659141344cd1fd0a4f28419497f9722a3daafe3b4186f6b6457e09190a35050565b80516001600160a01b03811681146200028857600080fd5b919050565b634e487b7160e01b600052604160045260246000fd5b600080600060608486031215620002b957600080fd5b620002c48462000270565b602085810151919450906001600160401b0380821115620002e457600080fd5b818701915087601f830112620002f957600080fd5b8151818111156200030e576200030e6200028d565b8060051b604051601f19603f830116810181811085821117156200033657620003366200028d565b60405291825284820192508381018501918a8311156200035557600080fd5b938501935b828510156200037e576200036e8562000270565b845293850193928501926200035a565b809750505050505050620003956040850162000270565b90509250925092565b634e487b7160e01b600052603260045260246000fd5b61129180620003c46000396000f3fe60806040526004361061009a5760003560e01c80638da5cb5b11610069578063f2fde38b1161004e578063f2fde38b146101df578063f3fef3a3146101ff578063fee5449a1461021f57600080fd5b80638da5cb5b1461018a578063e0ddf1f7146101bf57600080fd5b806335abdfa414610102578063715018a61461013557806389102c211461014a5780638aee81271461016a57600080fd5b366100fd576000805460405173ffffffffffffffffffffffffffffffffffffffff9091169034908381818185875af1925050503d80600081146100f6576040519150601f19603f3d011682016040523d82523d6000602084013e005b606091505b005b600080fd5b34801561010e57600080fd5b5061012261011d366004610e9f565b61026b565b6040519081526020015b60405180910390f35b34801561014157600080fd5b506100fb6102f2565b34801561015657600080fd5b506100fb610165366004610f1f565b610306565b34801561017657600080fd5b506100fb610185366004610f8b565b6103cd565b34801561019657600080fd5b5060005460405173ffffffffffffffffffffffffffffffffffffffff909116815260200161012c565b3480156101cb57600080fd5b506100fb6101da366004610fa6565b61049e565b3480156101eb57600080fd5b506100fb6101fa366004610f8b565b61070e565b34801561020b57600080fd5b506100fb61021a36600461102a565b610772565b34801561022b57600080fd5b50604080518082018252601381527f50657220617370657261206164206173747261000000000000000000000000006020820152905161012c9190611078565b60006102eb83610280368590038501856110e1565b8051602080830151604093840151845173ffffffffffffffffffffffffffffffffffffffff96909616868401528585019390935267ffffffffffffffff90811660608601529091166080808501919091528251808503909101815260a0909301909152815191012090565b9392505050565b6102fa61079f565b61030460006107f2565b565b61030e61079f565b60005b838110156103c65782828281811061032b5761032b61116d565b905060200201602081019061034091906111aa565b600360008787858181106103565761035661116d565b905060200201602081019061036b9190610f8b565b73ffffffffffffffffffffffffffffffffffffffff168152602081019190915260400160002080547fffffffffffffffffffffffffffffffffffffffffffffffffffffffffffffff0016911515919091179055600101610311565b5050505050565b6103d561079f565b73ffffffffffffffffffffffffffffffffffffffff8116610457576040517f08c379a000000000000000000000000000000000000000000000000000000000815260206004820152601b60248201527f41737472613a2072657761726420746f6b656e206973207a65726f000000000060448201526064015b60405180910390fd5b600280547fffffffffffffffffffffffff00000000000000000000000000000000000000001673ffffffffffffffffffffffffffffffffffffffff92909216919091179055565b6104a6610867565b3360009081526004602052604081205460ff1615610520576040517f08c379a000000000000000000000000000000000000000000000000000000000815260206004820152601660248201527f41737472613a20616c726561647920636c61696d656400000000000000000000604482015260640161044e565b3360009081526004602090815260409182902080547fffffffffffffffffffffffffffffffffffffffffffffffffffffffffffffff00166001179055429161056d919087019087016111c7565b67ffffffffffffffff1610156105df576040517f08c379a000000000000000000000000000000000000000000000000000000000815260206004820152600e60248201527f41737472613a2065787069726564000000000000000000000000000000000000604482015260640161044e565b6106316105f533610280368890038801886110e1565b84848080601f0160208091040260200160405190810160405280939291908181526020018383808284376000920191909152506108aa92505050565b610697576040517f08c379a000000000000000000000000000000000000000000000000000000000815260206004820152601660248201527f41737472613a207369676e6174757265206572726f7200000000000000000000604482015260640161044e565b6106a28435826111e2565b60405190915033908535907f35538759d80c1fd7bb450a0d05601db5a99fa8b5d073a07c847a9fd61029b10790600090a38335156106ff576002546106ff9073ffffffffffffffffffffffffffffffffffffffff16338635610924565b5061070960018055565b505050565b61071661079f565b73ffffffffffffffffffffffffffffffffffffffff8116610766576040517f1e4fbdf70000000000000000000000000000000000000000000000000000000081526000600482015260240161044e565b61076f816107f2565b50565b61077a61079f565b61079b73ffffffffffffffffffffffffffffffffffffffff83163383610924565b5050565b60005473ffffffffffffffffffffffffffffffffffffffff163314610304576040517f118cdaa700000000000000000000000000000000000000000000000000000000815233600482015260240161044e565b6000805473ffffffffffffffffffffffffffffffffffffffff8381167fffffffffffffffffffffffff0000000000000000000000000000000000000000831681178455604051919092169283917f8be0079c531659141344cd1fd0a4f28419497f9722a3daafe3b4186f6b6457e09190a35050565b6002600154036108a3576040517f3ee5aeb500000000000000000000000000000000000000000000000000000000815260040160405180910390fd5b6002600155565b6000600360006108f1846108eb877f19457468657265756d205369676e6564204d6573736167653a0a3332000000006000908152601c91909152603c902090565b906109b1565b73ffffffffffffffffffffffffffffffffffffffff16815260208101919091526040016000205460ff1690505b92915050565b6040805173ffffffffffffffffffffffffffffffffffffffff8416602482015260448082018490528251808303909101815260649091019091526020810180517bffffffffffffffffffffffffffffffffffffffffffffffffffffffff167fa9059cbb000000000000000000000000000000000000000000000000000000001790526107099084906109db565b6000806000806109c18686610a71565b9250925092506109d18282610abe565b5090949350505050565b60006109fd73ffffffffffffffffffffffffffffffffffffffff841683610bc2565b90508051600014158015610a22575080806020019051810190610a20919061121c565b155b15610709576040517f5274afe700000000000000000000000000000000000000000000000000000000815273ffffffffffffffffffffffffffffffffffffffff8416600482015260240161044e565b60008060008351604103610aab5760208401516040850151606086015160001a610a9d88828585610bd0565b955095509550505050610ab7565b50508151600091506002905b9250925092565b6000826003811115610ad257610ad2611239565b03610adb575050565b6001826003811115610aef57610aef611239565b03610b26576040517ff645eedf00000000000000000000000000000000000000000000000000000000815260040160405180910390fd5b6002826003811115610b3a57610b3a611239565b03610b74576040517ffce698f70000000000000000000000000000000000000000000000000000000081526004810182905260240161044e565b6003826003811115610b8857610b88611239565b0361079b576040517fd78bce0c0000000000000000000000000000000000000000000000000000000081526004810182905260240161044e565b60606102eb83836000610cca565b600080807f7fffffffffffffffffffffffffffffff5d576e7357a4501ddfe92f46681b20a0841115610c0b5750600091506003905082610cc0565b604080516000808252602082018084528a905260ff891692820192909252606081018790526080810186905260019060a0016020604051602081039080840390855afa158015610c5f573d6000803e3d6000fd5b50506040517fffffffffffffffffffffffffffffffffffffffffffffffffffffffffffffffe0015191505073ffffffffffffffffffffffffffffffffffffffff8116610cb657506000925060019150829050610cc0565b9250600091508190505b9450945094915050565b606081471015610d08576040517fcd78605900000000000000000000000000000000000000000000000000000000815230600482015260240161044e565b6000808573ffffffffffffffffffffffffffffffffffffffff168486604051610d319190611268565b60006040518083038185875af1925050503d8060008114610d6e576040519150601f19603f3d011682016040523d82523d6000602084013e610d73565b606091505b5091509150610d83868383610d8d565b9695505050505050565b606082610da257610d9d82610e1c565b6102eb565b8151158015610dc6575073ffffffffffffffffffffffffffffffffffffffff84163b155b15610e15576040517f9996b31500000000000000000000000000000000000000000000000000000000815273ffffffffffffffffffffffffffffffffffffffff8516600482015260240161044e565b50806102eb565b805115610e2c5780518082602001fd5b6040517f1425ea4200000000000000000000000000000000000000000000000000000000815260040160405180910390fd5b803573ffffffffffffffffffffffffffffffffffffffff81168114610e8257600080fd5b919050565b600060608284031215610e9957600080fd5b50919050565b60008060808385031215610eb257600080fd5b610ebb83610e5e565b9150610eca8460208501610e87565b90509250929050565b60008083601f840112610ee557600080fd5b50813567ffffffffffffffff811115610efd57600080fd5b6020830191508360208260051b8501011115610f1857600080fd5b9250929050565b60008060008060408587031215610f3557600080fd5b843567ffffffffffffffff80821115610f4d57600080fd5b610f5988838901610ed3565b90965094506020870135915080821115610f7257600080fd5b50610f7f87828801610ed3565b95989497509550505050565b600060208284031215610f9d57600080fd5b6102eb82610e5e565b600080600060808486031215610fbb57600080fd5b610fc58585610e87565b9250606084013567ffffffffffffffff80821115610fe257600080fd5b818601915086601f830112610ff657600080fd5b81358181111561100557600080fd5b87602082850101111561101757600080fd5b6020830194508093505050509250925092565b6000806040838503121561103d57600080fd5b61104683610e5e565b946020939093013593505050565b60005b8381101561106f578181015183820152602001611057565b50506000910152565b6020815260008251806020840152611097816040850160208701611054565b601f017fffffffffffffffffffffffffffffffffffffffffffffffffffffffffffffffe0169190910160400192915050565b803567ffffffffffffffff81168114610e8257600080fd5b6000606082840312156110f357600080fd5b6040516060810181811067ffffffffffffffff8211171561113d577f4e487b7100000000000000000000000000000000000000000000000000000000600052604160045260246000fd5b60405282358152611150602084016110c9565b6020820152611161604084016110c9565b60408201529392505050565b7f4e487b7100000000000000000000000000000000000000000000000000000000600052603260045260246000fd5b801515811461076f57600080fd5b6000602082840312156111bc57600080fd5b81356102eb8161119c565b6000602082840312156111d957600080fd5b6102eb826110c9565b8082018082111561091e577f4e487b7100000000000000000000000000000000000000000000000000000000600052601160045260246000fd5b60006020828403121561122e57600080fd5b81516102eb8161119c565b7f4e487b7100000000000000000000000000000000000000000000000000000000600052602160045260246000fd5b6000825161127a818460208701611054565b919091019291505056fea164736f6c6343000817000a",
  "linkReferences": {},
  "deployedLinkReferences": {}
}