{
  "_format": "hh-sol-artifact-1",
  "contractName": "AstraRewardsMerkle",
  "sourceName": "contracts/AstraRewardMerkle.sol",
  "abi": [
    {
      "inputs": [
        {
          "internalType": "address",
          "name": "owner_",
          "type": "address"
        },
        {
          "internalType": "bytes32",
          "name": "_whitelistRoot",
          "type": "bytes32"
        },
        {
          "internalType": "address",
          "name": "_rewardToken",
          "type": "address"
        }
      ],
      "stateMutability": "nonpayable",
      "type": "constructor"
    },
    {
      "inputs": [
        {
          "internalType": "address",
          "name": "target",
          "type": "address"
        }
      ],
      "name": "AddressEmptyCode",
      "type": "error"
    },
    {
      "inputs": [
        {
          "internalType": "address",
          "name": "account",
          "type": "address"
        }
      ],
      "name": "AddressInsufficientBalance",
      "type": "error"
    },
    {
      "inputs": [],
      "name": "FailedInnerCall",
      "type": "error"
    },
    {
      "inputs": [
        {
          "internalType": "address",
          "name": "owner",
          "type": "address"
        }
      ],
      "name": "OwnableInvalidOwner",
      "type": "error"
    },
    {
      "inputs": [
        {
          "internalType": "address",
          "name": "account",
          "type": "address"
        }
      ],
      "name": "OwnableUnauthorizedAccount",
      "type": "error"
    },
    {
      "inputs": [],
      "name": "ReentrancyGuardReentrantCall",
      "type": "error"
    },
    {
      "inputs": [
        {
          "internalType": "address",
          "name": "token",
          "type": "address"
        }
      ],
      "name": "SafeERC20FailedOperation",
      "type": "error"
    },
    {
      "anonymous": false,
      "inputs": [
        {
          "indexed": true,
          "internalType": "uint256",
          "name": "value",
          "type": "uint256"
        },
        {
          "indexed": true,
          "internalType": "address",
          "name": "winner",
          "type": "address"
        }
      ],
      "name": "Claim",
      "type": "event"
    },
    {
      "anonymous": false,
      "inputs": [
        {
          "indexed": true,
          "internalType": "address",
          "name": "previousOwner",
          "type": "address"
        },
        {
          "indexed": true,
          "internalType": "address",
          "name": "newOwner",
          "type": "address"
        }
      ],
      "name": "OwnershipTransferred",
      "type": "event"
    },
    {
      "inputs": [],
      "name": "astra",
      "outputs": [
        {
          "internalType": "string",
          "name": "",
          "type": "string"
        }
      ],
      "stateMutability": "pure",
      "type": "function"
    },
    {
      "inputs": [
        {
          "internalType": "uint256",
          "name": "amount",
          "type": "uint256"
        },
        {
          "internalType": "bytes32[]",
          "name": "_proof",
          "type": "bytes32[]"
        }
      ],
      "name": "claim",
      "outputs": [],
      "stateMutability": "nonpayable",
      "type": "function"
    },
    {
      "inputs": [],
      "name": "owner",
      "outputs": [
        {
          "internalType": "address",
          "name": "",
          "type": "address"
        }
      ],
      "stateMutability": "view",
      "type": "function"
    },
    {
      "inputs": [],
      "name": "renounceOwnership",
      "outputs": [],
      "stateMutability": "nonpayable",
      "type": "function"
    },
    {
      "inputs": [],
      "name": "rewardToken",
      "outputs": [
        {
          "internalType": "address",
          "name": "",
          "type": "address"
        }
      ],
      "stateMutability": "view",
      "type": "function"
    },
    {
      "inputs": [
        {
          "internalType": "bytes32",
          "name": "_whitelistRoot",
          "type": "bytes32"
        }
      ],
      "name": "setMerkleRoot",
      "outputs": [],
      "stateMutability": "nonpayable",
      "type": "function"
    },
    {
      "inputs": [
        {
          "internalType": "address",
          "name": "token",
          "type": "address"
        }
      ],
      "name": "setRewardToken",
      "outputs": [],
      "stateMutability": "nonpayable",
      "type": "function"
    },
    {
      "inputs": [
        {
          "internalType": "address",
          "name": "newOwner",
          "type": "address"
        }
      ],
      "name": "transferOwnership",
      "outputs": [],
      "stateMutability": "nonpayable",
      "type": "function"
    },
    {
      "inputs": [],
      "name": "whitelistRoot",
      "outputs": [
        {
          "internalType": "bytes32",
          "name": "",
          "type": "bytes32"
        }
      ],
      "stateMutability": "view",
      "type": "function"
    },
    {
      "inputs": [
        {
          "internalType": "uint256",
          "name": "amount",
          "type": "uint256"
        }
      ],
      "name": "withdraw",
      "outputs": [],
      "stateMutability": "nonpayable",
      "type": "function"
    },
    {
      "inputs": [
        {
          "internalType": "address",
          "name": "token",
          "type": "address"
        },
        {
          "internalType": "uint256",
          "name": "amount",
          "type": "uint256"
        }
      ],
      "name": "withdraw",
      "outputs": [],
      "stateMutability": "nonpayable",
      "type": "function"
    },
    {
      "stateMutability": "payable",
      "type": "receive"
    }
  ],
  "bytecode": "0x608060405234801561001057600080fd5b50604051610e45380380610e4583398101604081905261002f9161015a565b826001600160a01b03811661005f57604051631e4fbdf760e01b8152600060048201526024015b60405180910390fd5b610068816100ee565b50600180556001600160a01b0383166100c35760405162461bcd60e51b815260206004820152601460248201527f41737472613a206f776e6572206973207a65726f0000000000000000000000006044820152606401610056565b600391909155600480546001600160a01b0319166001600160a01b0390921691909117905550610196565b600080546001600160a01b038381166001600160a01b0319831681178455604051919092169283917f8be0079c531659141344cd1fd0a4f28419497f9722a3daafe3b4186f6b6457e09190a35050565b80516001600160a01b038116811461015557600080fd5b919050565b60008060006060848603121561016f57600080fd5b6101788461013e565b92506020840151915061018d6040850161013e565b90509250925092565b610ca0806101a56000396000f3fe6080604052600436106100c05760003560e01c80638aee812711610074578063f3fef3a31161004e578063f3fef3a3146101f8578063f7c618c114610218578063fee5449a1461024557600080fd5b80638aee81271461016c5780638da5cb5b1461018c578063f2fde38b146101d857600080fd5b8063386bfc98116100a5578063386bfc981461010e578063715018a6146101375780637cb647591461014c57600080fd5b80632e1a7d4d146100cc5780632f52ebb7146100ee57600080fd5b366100c757005b600080fd5b3480156100d857600080fd5b506100ec6100e7366004610aab565b610291565b005b3480156100fa57600080fd5b506100ec610109366004610ac4565b6102ff565b34801561011a57600080fd5b5061012460035481565b6040519081526020015b60405180910390f35b34801561014357600080fd5b506100ec610518565b34801561015857600080fd5b506100ec610167366004610aab565b61052c565b34801561017857600080fd5b506100ec610187366004610b6c565b610539565b34801561019857600080fd5b5060005473ffffffffffffffffffffffffffffffffffffffff165b60405173ffffffffffffffffffffffffffffffffffffffff909116815260200161012e565b3480156101e457600080fd5b506100ec6101f3366004610b6c565b610605565b34801561020457600080fd5b506100ec610213366004610b87565b610669565b34801561022457600080fd5b506004546101b39073ffffffffffffffffffffffffffffffffffffffff1681565b34801561025157600080fd5b50604080518082018252601381527f50657220617370657261206164206173747261000000000000000000000000006020820152905161012e9190610bd5565b610299610696565b6000805460405173ffffffffffffffffffffffffffffffffffffffff9091169083908381818185875af1925050503d80600081146102f3576040519150601f19603f3d011682016040523d82523d6000602084013e6102f8565b606091505b5050505050565b6103076106e9565b3360009081526002602052604090205460ff1615610386576040517f08c379a000000000000000000000000000000000000000000000000000000000815260206004820152601660248201527f41737472613a20616c726561647920636c61696d65640000000000000000000060448201526064015b60405180910390fd5b6040517fffffffffffffffffffffffffffffffffffffffff0000000000000000000000003360601b1660208201526034810184905260009060540160405160208183030381529060405280519060200120905061041a83838080602002602001604051908101604052809392919081815260200183836020028082843760009201919091525050600354915084905061072c565b610480576040517f08c379a000000000000000000000000000000000000000000000000000000000815260206004820152600d60248201527f496e76616c69642070726f6f6600000000000000000000000000000000000000604482015260640161037d565b3360008181526002602052604080822080547fffffffffffffffffffffffffffffffffffffffffffffffffffffffffffffff001660011790555186917f35538759d80c1fd7bb450a0d05601db5a99fa8b5d073a07c847a9fd61029b10791a38315610509576004546105099073ffffffffffffffffffffffffffffffffffffffff163386610744565b5061051360018055565b505050565b610520610696565b61052a60006107d1565b565b610534610696565b600355565b610541610696565b73ffffffffffffffffffffffffffffffffffffffff81166105be576040517f08c379a000000000000000000000000000000000000000000000000000000000815260206004820152601b60248201527f41737472613a2072657761726420746f6b656e206973207a65726f0000000000604482015260640161037d565b600480547fffffffffffffffffffffffff00000000000000000000000000000000000000001673ffffffffffffffffffffffffffffffffffffffff92909216919091179055565b61060d610696565b73ffffffffffffffffffffffffffffffffffffffff811661065d576040517f1e4fbdf70000000000000000000000000000000000000000000000000000000081526000600482015260240161037d565b610666816107d1565b50565b610671610696565b61069273ffffffffffffffffffffffffffffffffffffffff83163383610744565b5050565b60005473ffffffffffffffffffffffffffffffffffffffff16331461052a576040517f118cdaa700000000000000000000000000000000000000000000000000000000815233600482015260240161037d565b600260015403610725576040517f3ee5aeb500000000000000000000000000000000000000000000000000000000815260040160405180910390fd5b6002600155565b6000826107398584610846565b1490505b9392505050565b6040805173ffffffffffffffffffffffffffffffffffffffff8416602482015260448082018490528251808303909101815260649091019091526020810180517bffffffffffffffffffffffffffffffffffffffffffffffffffffffff167fa9059cbb00000000000000000000000000000000000000000000000000000000179052610513908490610889565b6000805473ffffffffffffffffffffffffffffffffffffffff8381167fffffffffffffffffffffffff0000000000000000000000000000000000000000831681178455604051919092169283917f8be0079c531659141344cd1fd0a4f28419497f9722a3daafe3b4186f6b6457e09190a35050565b600081815b8451811015610881576108778286838151811061086a5761086a610c26565b602002602001015161091f565b915060010161084b565b509392505050565b60006108ab73ffffffffffffffffffffffffffffffffffffffff84168361094b565b905080516000141580156108d05750808060200190518101906108ce9190610c55565b155b15610513576040517f5274afe700000000000000000000000000000000000000000000000000000000815273ffffffffffffffffffffffffffffffffffffffff8416600482015260240161037d565b600081831061093b57600082815260208490526040902061073d565b5060009182526020526040902090565b606061073d83836000846000808573ffffffffffffffffffffffffffffffffffffffff16848660405161097e9190610c77565b60006040518083038185875af1925050503d80600081146109bb576040519150601f19603f3d011682016040523d82523d6000602084013e6109c0565b606091505b50915091506109d08683836109da565b9695505050505050565b6060826109ef576109ea82610a69565b61073d565b8151158015610a13575073ffffffffffffffffffffffffffffffffffffffff84163b155b15610a62576040517f9996b31500000000000000000000000000000000000000000000000000000000815273ffffffffffffffffffffffffffffffffffffffff8516600482015260240161037d565b508061073d565b805115610a795780518082602001fd5b6040517f1425ea4200000000000000000000000000000000000000000000000000000000815260040160405180910390fd5b600060208284031215610abd57600080fd5b5035919050565b600080600060408486031215610ad957600080fd5b83359250602084013567ffffffffffffffff80821115610af857600080fd5b818601915086601f830112610b0c57600080fd5b813581811115610b1b57600080fd5b8760208260051b8501011115610b3057600080fd5b6020830194508093505050509250925092565b803573ffffffffffffffffffffffffffffffffffffffff81168114610b6757600080fd5b919050565b600060208284031215610b7e57600080fd5b61073d82610b43565b60008060408385031215610b9a57600080fd5b610ba383610b43565b946020939093013593505050565b60005b83811015610bcc578181015183820152602001610bb4565b50506000910152565b6020815260008251806020840152610bf4816040850160208701610bb1565b601f017fffffffffffffffffffffffffffffffffffffffffffffffffffffffffffffffe0169190910160400192915050565b7f4e487b7100000000000000000000000000000000000000000000000000000000600052603260045260246000fd5b600060208284031215610c6757600080fd5b8151801515811461073d57600080fd5b60008251610c89818460208701610bb1565b919091019291505056fea164736f6c6343000817000a",
  "linkReferences": {},
  "deployedLinkReferences": {}
}