{
  "_format": "hh-sol-artifact-1",
  "contractName": "AstraChargeCard",
  "sourceName": "contracts/AstraChargeCardNFT.sol",
  "abi": [
    {
      "inputs": [
        {
          "internalType": "string",
          "name": "uri_",
          "type": "string"
        },
        {
          "internalType": "address",
          "name": "_owner",
          "type": "address"
        },
        {
          "internalType": "address",
          "name": "_signer",
          "type": "address"
        }
      ],
      "stateMutability": "nonpayable",
      "type": "constructor"
    },
    {
      "inputs": [],
      "name": "ECDSAInvalidSignature",
      "type": "error"
    },
    {
      "inputs": [
        {
          "internalType": "uint256",
          "name": "length",
          "type": "uint256"
        }
      ],
      "name": "ECDSAInvalidSignatureLength",
      "type": "error"
    },
    {
      "inputs": [
        {
          "internalType": "bytes32",
          "name": "s",
          "type": "bytes32"
        }
      ],
      "name": "ECDSAInvalidSignatureS",
      "type": "error"
    },
    {
      "inputs": [
        {
          "internalType": "address",
          "name": "sender",
          "type": "address"
        },
        {
          "internalType": "uint256",
          "name": "balance",
          "type": "uint256"
        },
        {
          "internalType": "uint256",
          "name": "needed",
          "type": "uint256"
        },
        {
          "internalType": "uint256",
          "name": "tokenId",
          "type": "uint256"
        }
      ],
      "name": "ERC1155InsufficientBalance",
      "type": "error"
    },
    {
      "inputs": [
        {
          "internalType": "address",
          "name": "approver",
          "type": "address"
        }
      ],
      "name": "ERC1155InvalidApprover",
      "type": "error"
    },
    {
      "inputs": [
        {
          "internalType": "uint256",
          "name": "idsLength",
          "type": "uint256"
        },
        {
          "internalType": "uint256",
          "name": "valuesLength",
          "type": "uint256"
        }
      ],
      "name": "ERC1155InvalidArrayLength",
      "type": "error"
    },
    {
      "inputs": [
        {
          "internalType": "address",
          "name": "operator",
          "type": "address"
        }
      ],
      "name": "ERC1155InvalidOperator",
      "type": "error"
    },
    {
      "inputs": [
        {
          "internalType": "address",
          "name": "receiver",
          "type": "address"
        }
      ],
      "name": "ERC1155InvalidReceiver",
      "type": "error"
    },
    {
      "inputs": [
        {
          "internalType": "address",
          "name": "sender",
          "type": "address"
        }
      ],
      "name": "ERC1155InvalidSender",
      "type": "error"
    },
    {
      "inputs": [
        {
          "internalType": "address",
          "name": "operator",
          "type": "address"
        },
        {
          "internalType": "address",
          "name": "owner",
          "type": "address"
        }
      ],
      "name": "ERC1155MissingApprovalForAll",
      "type": "error"
    },
    {
      "inputs": [
        {
          "internalType": "address",
          "name": "owner",
          "type": "address"
        }
      ],
      "name": "OwnableInvalidOwner",
      "type": "error"
    },
    {
      "inputs": [
        {
          "internalType": "address",
          "name": "account",
          "type": "address"
        }
      ],
      "name": "OwnableUnauthorizedAccount",
      "type": "error"
    },
    {
      "anonymous": false,
      "inputs": [
        {
          "indexed": true,
          "internalType": "address",
          "name": "account",
          "type": "address"
        },
        {
          "indexed": true,
          "internalType": "address",
          "name": "operator",
          "type": "address"
        },
        {
          "indexed": false,
          "internalType": "bool",
          "name": "approved",
          "type": "bool"
        }
      ],
      "name": "ApprovalForAll",
      "type": "event"
    },
    {
      "anonymous": false,
      "inputs": [
        {
          "indexed": true,
          "internalType": "address",
          "name": "previousOwner",
          "type": "address"
        },
        {
          "indexed": true,
          "internalType": "address",
          "name": "newOwner",
          "type": "address"
        }
      ],
      "name": "OwnershipTransferred",
      "type": "event"
    },
    {
      "anonymous": false,
      "inputs": [
        {
          "indexed": true,
          "internalType": "address",
          "name": "operator",
          "type": "address"
        },
        {
          "indexed": true,
          "internalType": "address",
          "name": "from",
          "type": "address"
        },
        {
          "indexed": true,
          "internalType": "address",
          "name": "to",
          "type": "address"
        },
        {
          "indexed": false,
          "internalType": "uint256[]",
          "name": "ids",
          "type": "uint256[]"
        },
        {
          "indexed": false,
          "internalType": "uint256[]",
          "name": "values",
          "type": "uint256[]"
        }
      ],
      "name": "TransferBatch",
      "type": "event"
    },
    {
      "anonymous": false,
      "inputs": [
        {
          "indexed": true,
          "internalType": "address",
          "name": "operator",
          "type": "address"
        },
        {
          "indexed": true,
          "internalType": "address",
          "name": "from",
          "type": "address"
        },
        {
          "indexed": true,
          "internalType": "address",
          "name": "to",
          "type": "address"
        },
        {
          "indexed": false,
          "internalType": "uint256",
          "name": "id",
          "type": "uint256"
        },
        {
          "indexed": false,
          "internalType": "uint256",
          "name": "value",
          "type": "uint256"
        }
      ],
      "name": "TransferSingle",
      "type": "event"
    },
    {
      "anonymous": false,
      "inputs": [
        {
          "indexed": false,
          "internalType": "string",
          "name": "value",
          "type": "string"
        },
        {
          "indexed": true,
          "internalType": "uint256",
          "name": "id",
          "type": "uint256"
        }
      ],
      "name": "URI",
      "type": "event"
    },
    {
      "inputs": [
        {
          "internalType": "address",
          "name": "account",
          "type": "address"
        },
        {
          "internalType": "uint256",
          "name": "id",
          "type": "uint256"
        }
      ],
      "name": "balanceOf",
      "outputs": [
        {
          "internalType": "uint256",
          "name": "",
          "type": "uint256"
        }
      ],
      "stateMutability": "view",
      "type": "function"
    },
    {
      "inputs": [
        {
          "internalType": "address[]",
          "name": "accounts",
          "type": "address[]"
        },
        {
          "internalType": "uint256[]",
          "name": "ids",
          "type": "uint256[]"
        }
      ],
      "name": "balanceOfBatch",
      "outputs": [
        {
          "internalType": "uint256[]",
          "name": "",
          "type": "uint256[]"
        }
      ],
      "stateMutability": "view",
      "type": "function"
    },
    {
      "inputs": [
        {
          "internalType": "address",
          "name": "account",
          "type": "address"
        },
        {
          "internalType": "address",
          "name": "operator",
          "type": "address"
        }
      ],
      "name": "isApprovedForAll",
      "outputs": [
        {
          "internalType": "bool",
          "name": "",
          "type": "bool"
        }
      ],
      "stateMutability": "view",
      "type": "function"
    },
    {
      "inputs": [
        {
          "internalType": "address",
          "name": "to",
          "type": "address"
        },
        {
          "internalType": "uint256",
          "name": "id",
          "type": "uint256"
        },
        {
          "internalType": "string",
          "name": "code",
          "type": "string"
        },
        {
          "internalType": "bytes",
          "name": "signature",
          "type": "bytes"
        }
      ],
      "name": "mintNFT",
      "outputs": [],
      "stateMutability": "nonpayable",
      "type": "function"
    },
    {
      "inputs": [],
      "name": "owner",
      "outputs": [
        {
          "internalType": "address",
          "name": "",
          "type": "address"
        }
      ],
      "stateMutability": "view",
      "type": "function"
    },
    {
      "inputs": [],
      "name": "renounceOwnership",
      "outputs": [],
      "stateMutability": "nonpayable",
      "type": "function"
    },
    {
      "inputs": [
        {
          "internalType": "address",
          "name": "from",
          "type": "address"
        },
        {
          "internalType": "address",
          "name": "to",
          "type": "address"
        },
        {
          "internalType": "uint256[]",
          "name": "ids",
          "type": "uint256[]"
        },
        {
          "internalType": "uint256[]",
          "name": "values",
          "type": "uint256[]"
        },
        {
          "internalType": "bytes",
          "name": "data",
          "type": "bytes"
        }
      ],
      "name": "safeBatchTransferFrom",
      "outputs": [],
      "stateMutability": "nonpayable",
      "type": "function"
    },
    {
      "inputs": [
        {
          "internalType": "address",
          "name": "from",
          "type": "address"
        },
        {
          "internalType": "address",
          "name": "to",
          "type": "address"
        },
        {
          "internalType": "uint256",
          "name": "id",
          "type": "uint256"
        },
        {
          "internalType": "uint256",
          "name": "value",
          "type": "uint256"
        },
        {
          "internalType": "bytes",
          "name": "data",
          "type": "bytes"
        }
      ],
      "name": "safeTransferFrom",
      "outputs": [],
      "stateMutability": "nonpayable",
      "type": "function"
    },
    {
      "inputs": [
        {
          "internalType": "address",
          "name": "operator",
          "type": "address"
        },
        {
          "internalType": "bool",
          "name": "approved",
          "type": "bool"
        }
      ],
      "name": "setApprovalForAll",
      "outputs": [],
      "stateMutability": "nonpayable",
      "type": "function"
    },
    {
      "inputs": [
        {
          "internalType": "address",
          "name": "_signer",
          "type": "address"
        }
      ],
      "name": "setSigner",
      "outputs": [],
      "stateMutability": "nonpayable",
      "type": "function"
    },
    {
      "inputs": [
        {
          "internalType": "string",
          "name": "uri_",
          "type": "string"
        }
      ],
      "name": "setURI",
      "outputs": [],
      "stateMutability": "nonpayable",
      "type": "function"
    },
    {
      "inputs": [
        {
          "internalType": "bytes4",
          "name": "interfaceId",
          "type": "bytes4"
        }
      ],
      "name": "supportsInterface",
      "outputs": [
        {
          "internalType": "bool",
          "name": "",
          "type": "bool"
        }
      ],
      "stateMutability": "view",
      "type": "function"
    },
    {
      "inputs": [
        {
          "internalType": "address",
          "name": "newOwner",
          "type": "address"
        }
      ],
      "name": "transferOwnership",
      "outputs": [],
      "stateMutability": "nonpayable",
      "type": "function"
    },
    {
      "inputs": [
        {
          "internalType": "uint256",
          "name": "tokenId",
          "type": "uint256"
        }
      ],
      "name": "uri",
      "outputs": [
        {
          "internalType": "string",
          "name": "",
          "type": "string"
        }
      ],
      "stateMutability": "view",
      "type": "function"
    }
  ],
  "bytecode": "0x60806040523480156200001157600080fd5b506040516200264938038062002649833981016040819052620000349162000147565b81836200004181620000b0565b506001600160a01b0381166200007157604051631e4fbdf760e01b81526000600482015260240160405180910390fd5b6200007c81620000c2565b50600480546001600160a01b0319166001600160a01b0383161790556006620000a68482620002d2565b505050506200039e565b6002620000be8282620002d2565b5050565b600380546001600160a01b038381166001600160a01b0319831681179093556040519116919082907f8be0079c531659141344cd1fd0a4f28419497f9722a3daafe3b4186f6b6457e090600090a35050565b634e487b7160e01b600052604160045260246000fd5b80516001600160a01b03811681146200014257600080fd5b919050565b6000806000606084860312156200015d57600080fd5b83516001600160401b03808211156200017557600080fd5b818601915086601f8301126200018a57600080fd5b8151818111156200019f576200019f62000114565b604051601f8201601f19908116603f01168101908382118183101715620001ca57620001ca62000114565b81604052828152602093508984848701011115620001e757600080fd5b600091505b828210156200020b5784820184015181830185015290830190620001ec565b6000848483010152809750505050620002268187016200012a565b9350505062000238604085016200012a565b90509250925092565b600181811c908216806200025657607f821691505b6020821081036200027757634e487b7160e01b600052602260045260246000fd5b50919050565b601f821115620002cd576000816000526020600020601f850160051c81016020861015620002a85750805b601f850160051c820191505b81811015620002c957828155600101620002b4565b5050505b505050565b81516001600160401b03811115620002ee57620002ee62000114565b6200030681620002ff845462000241565b846200027d565b602080601f8311600181146200033e5760008415620003255750858301515b600019600386901b1c1916600185901b178555620002c9565b600085815260208120601f198616915b828110156200036f578886015182559484019460019091019084016200034e565b50858210156200038e5787850151600019600388901b60f8161c191681555b5050505050600190811b01905550565b61229b80620003ae6000396000f3fe608060405234801561001057600080fd5b50600436106100e95760003560e01c8063715018a61161008c578063cf20e93a11610066578063cf20e93a146101f5578063e985e9c514610208578063f242432a14610251578063f2fde38b1461026457600080fd5b8063715018a6146101b25780638da5cb5b146101ba578063a22cb465146101e257600080fd5b80630e89341c116100c85780630e89341c1461014c5780632eb2c2d61461016c5780634e1273f41461017f5780636c19e7831461019f57600080fd5b8062fdd58e146100ee57806301ffc9a71461011457806302fe530514610137575b600080fd5b6101016100fc3660046117e3565b610277565b6040519081526020015b60405180910390f35b61012761012236600461183b565b6102ac565b604051901515815260200161010b565b61014a61014536600461196b565b61038f565b005b61015f61015a3660046119a8565b6103a7565b60405161010b9190611a2f565b61014a61017a366004611ad5565b6103db565b61019261018d366004611b7f565b6104a6565b60405161010b9190611c7b565b61014a6101ad366004611c8e565b61058c565b61014a6105db565b60035460405173ffffffffffffffffffffffffffffffffffffffff909116815260200161010b565b61014a6101f0366004611ca9565b6105ef565b61014a610203366004611ce5565b6105fa565b610127610216366004611d63565b73ffffffffffffffffffffffffffffffffffffffff918216600090815260016020908152604080832093909416825291909152205460ff1690565b61014a61025f366004611d96565b610803565b61014a610272366004611c8e565b6108c1565b60008181526020818152604080832073ffffffffffffffffffffffffffffffffffffffff861684529091529020545b92915050565b60007fffffffff0000000000000000000000000000000000000000000000000000000082167fd9b67a2600000000000000000000000000000000000000000000000000000000148061033f57507fffffffff0000000000000000000000000000000000000000000000000000000082167f0e89341c00000000000000000000000000000000000000000000000000000000145b806102a657507f01ffc9a7000000000000000000000000000000000000000000000000000000007fffffffff000000000000000000000000000000000000000000000000000000008316146102a6565b610397610925565b60066103a38282611e9b565b5050565b606060066103b483610978565b6040516020016103c5929190611fb5565b6040516020818303038152906040529050919050565b3373ffffffffffffffffffffffffffffffffffffffff86168114801590610435575073ffffffffffffffffffffffffffffffffffffffff80871660009081526001602090815260408083209385168352929052205460ff16155b15610491576040517fe237d92200000000000000000000000000000000000000000000000000000000815273ffffffffffffffffffffffffffffffffffffffff8083166004830152871660248201526044015b60405180910390fd5b61049e8686868686610a36565b505050505050565b606081518351146104f057815183516040517f5b05999100000000000000000000000000000000000000000000000000000000815260048101929092526024820152604401610488565b6000835167ffffffffffffffff81111561050c5761050c61185f565b604051908082528060200260200182016040528015610535578160200160208202803683370190505b50905060005b84518110156105845760208082028601015161055f90602080840287010151610277565b82828151811061057157610571612082565b602090810291909101015260010161053b565b509392505050565b610594610925565b600480547fffffffffffffffffffffffff00000000000000000000000000000000000000001673ffffffffffffffffffffffffffffffffffffffff92909216919091179055565b6105e3610925565b6105ed6000610aea565b565b6103a3338383610b61565b60058260405161060a91906120b1565b9081526040519081900360200190205460ff16156106aa576040517f08c379a000000000000000000000000000000000000000000000000000000000815260206004820152602160248201527f41737472613a20436f64652068617320616c7265616479206265656e2075736560448201527f64000000000000000000000000000000000000000000000000000000000000006064820152608401610488565b60008483856040516020016106c1939291906120cd565b6040516020818303038152906040528051906020012090506000610712827f19457468657265756d205369676e6564204d6573736167653a0a3332000000006000908152601c91909152603c902090565b905060006107208285610c49565b60045490915073ffffffffffffffffffffffffffffffffffffffff8083169116146107a7576040517f08c379a000000000000000000000000000000000000000000000000000000000815260206004820152601860248201527f41737472613a20496e76616c6964207369676e617475726500000000000000006044820152606401610488565b60016005866040516107b991906120b1565b908152602001604051809103902060006101000a81548160ff0219169083151502179055506107fa8787600160405180602001604052806000815250610c73565b50505050505050565b3373ffffffffffffffffffffffffffffffffffffffff8616811480159061085d575073ffffffffffffffffffffffffffffffffffffffff80871660009081526001602090815260408083209385168352929052205460ff16155b156108b4576040517fe237d92200000000000000000000000000000000000000000000000000000000815273ffffffffffffffffffffffffffffffffffffffff808316600483015287166024820152604401610488565b61049e8686868686610cf6565b6108c9610925565b73ffffffffffffffffffffffffffffffffffffffff8116610919576040517f1e4fbdf700000000000000000000000000000000000000000000000000000000815260006004820152602401610488565b61092281610aea565b50565b60035473ffffffffffffffffffffffffffffffffffffffff1633146105ed576040517f118cdaa7000000000000000000000000000000000000000000000000000000008152336004820152602401610488565b6060600061098583610dc8565b600101905060008167ffffffffffffffff8111156109a5576109a561185f565b6040519080825280601f01601f1916602001820160405280156109cf576020820181803683370190505b5090508181016020015b7fffffffffffffffffffffffffffffffffffffffffffffffffffffffffffffffff017f3031323334353637383961626364656600000000000000000000000000000000600a86061a8153600a85049450846109d957509392505050565b73ffffffffffffffffffffffffffffffffffffffff8416610a86576040517f57f447ce00000000000000000000000000000000000000000000000000000000815260006004820152602401610488565b73ffffffffffffffffffffffffffffffffffffffff8516610ad6576040517f01a8351400000000000000000000000000000000000000000000000000000000815260006004820152602401610488565b610ae38585858585610eaa565b5050505050565b6003805473ffffffffffffffffffffffffffffffffffffffff8381167fffffffffffffffffffffffff0000000000000000000000000000000000000000831681179093556040519116919082907f8be0079c531659141344cd1fd0a4f28419497f9722a3daafe3b4186f6b6457e090600090a35050565b73ffffffffffffffffffffffffffffffffffffffff8216610bb1576040517fced3e10000000000000000000000000000000000000000000000000000000000815260006004820152602401610488565b73ffffffffffffffffffffffffffffffffffffffff83811660008181526001602090815260408083209487168084529482529182902080547fffffffffffffffffffffffffffffffffffffffffffffffffffffffffffffff001686151590811790915591519182527f17307eab39ab6107e8899845ad3d59bd9653f200f220920489ca2b5937696c31910160405180910390a3505050565b600080600080610c598686610f0a565b925092509250610c698282610f57565b5090949350505050565b73ffffffffffffffffffffffffffffffffffffffff8416610cc3576040517f57f447ce00000000000000000000000000000000000000000000000000000000815260006004820152602401610488565b6040805160018082526020820186905281830190815260608201859052608082019092529061049e600087848487610eaa565b73ffffffffffffffffffffffffffffffffffffffff8416610d46576040517f57f447ce00000000000000000000000000000000000000000000000000000000815260006004820152602401610488565b73ffffffffffffffffffffffffffffffffffffffff8516610d96576040517f01a8351400000000000000000000000000000000000000000000000000000000815260006004820152602401610488565b604080516001808252602082018690528183019081526060820185905260808201909252906107fa8787848487610eaa565b6000807a184f03e93ff9f4daa797ed6e38ed64bf6a1f0100000000000000008310610e11577a184f03e93ff9f4daa797ed6e38ed64bf6a1f010000000000000000830492506040015b6d04ee2d6d415b85acef81000000008310610e3d576d04ee2d6d415b85acef8100000000830492506020015b662386f26fc100008310610e5b57662386f26fc10000830492506010015b6305f5e1008310610e73576305f5e100830492506008015b6127108310610e8757612710830492506004015b60648310610e99576064830492506002015b600a83106102a65760010192915050565b610eb68585858561105b565b73ffffffffffffffffffffffffffffffffffffffff841615610ae35782513390600103610efc5760208481015190840151610ef583898985858961133d565b505061049e565b61049e81878787878761152f565b60008060008351604103610f445760208401516040850151606086015160001a610f36888285856116c0565b955095509550505050610f50565b50508151600091506002905b9250925092565b6000826003811115610f6b57610f6b61211f565b03610f74575050565b6001826003811115610f8857610f8861211f565b03610fbf576040517ff645eedf00000000000000000000000000000000000000000000000000000000815260040160405180910390fd5b6002826003811115610fd357610fd361211f565b0361100d576040517ffce698f700000000000000000000000000000000000000000000000000000000815260048101829052602401610488565b60038260038111156110215761102161211f565b036103a3576040517fd78bce0c00000000000000000000000000000000000000000000000000000000815260048101829052602401610488565b80518251146110a357815181516040517f5b05999100000000000000000000000000000000000000000000000000000000815260048101929092526024820152604401610488565b3360005b83518110156112105760208181028581018201519085019091015173ffffffffffffffffffffffffffffffffffffffff8816156111a75760008281526020818152604080832073ffffffffffffffffffffffffffffffffffffffff8c16845290915290205481811015611173576040517f03dee4c500000000000000000000000000000000000000000000000000000000815273ffffffffffffffffffffffffffffffffffffffff8a166004820152602481018290526044810183905260648101849052608401610488565b60008381526020818152604080832073ffffffffffffffffffffffffffffffffffffffff8d16845290915290209082900390555b73ffffffffffffffffffffffffffffffffffffffff8716156112065760008281526020818152604080832073ffffffffffffffffffffffffffffffffffffffff8b1684529091528120805483929061120090849061214e565b90915550505b50506001016110a7565b5082516001036112b857602083015160009060208401519091508573ffffffffffffffffffffffffffffffffffffffff168773ffffffffffffffffffffffffffffffffffffffff168473ffffffffffffffffffffffffffffffffffffffff167fc3d58168c5ae7397731d063d5bbf3d657854427343f4c083240f7aacaa2d0f6285856040516112a9929190918252602082015260400190565b60405180910390a45050610ae3565b8373ffffffffffffffffffffffffffffffffffffffff168573ffffffffffffffffffffffffffffffffffffffff168273ffffffffffffffffffffffffffffffffffffffff167f4a39dc06d4c0dbc64b70af90fd698a233a518aa5d07e595d983b8c0526c8f7fb868660405161132e929190612188565b60405180910390a45050505050565b73ffffffffffffffffffffffffffffffffffffffff84163b1561049e576040517ff23a6e6100000000000000000000000000000000000000000000000000000000815273ffffffffffffffffffffffffffffffffffffffff85169063f23a6e61906113b490899089908890889088906004016121b6565b6020604051808303816000875af192505050801561140d575060408051601f3d9081017fffffffffffffffffffffffffffffffffffffffffffffffffffffffffffffffe016820190925261140a91810190612206565b60015b61149c573d80801561143b576040519150601f19603f3d011682016040523d82523d6000602084013e611440565b606091505b508051600003611494576040517f57f447ce00000000000000000000000000000000000000000000000000000000815273ffffffffffffffffffffffffffffffffffffffff86166004820152602401610488565b805181602001fd5b7fffffffff0000000000000000000000000000000000000000000000000000000081167ff23a6e6100000000000000000000000000000000000000000000000000000000146107fa576040517f57f447ce00000000000000000000000000000000000000000000000000000000815273ffffffffffffffffffffffffffffffffffffffff86166004820152602401610488565b73ffffffffffffffffffffffffffffffffffffffff84163b1561049e576040517fbc197c8100000000000000000000000000000000000000000000000000000000815273ffffffffffffffffffffffffffffffffffffffff85169063bc197c81906115a69089908990889088908890600401612223565b6020604051808303816000875af19250505080156115ff575060408051601f3d9081017fffffffffffffffffffffffffffffffffffffffffffffffffffffffffffffffe01682019092526115fc91810190612206565b60015b61162d573d80801561143b576040519150601f19603f3d011682016040523d82523d6000602084013e611440565b7fffffffff0000000000000000000000000000000000000000000000000000000081167fbc197c8100000000000000000000000000000000000000000000000000000000146107fa576040517f57f447ce00000000000000000000000000000000000000000000000000000000815273ffffffffffffffffffffffffffffffffffffffff86166004820152602401610488565b600080807f7fffffffffffffffffffffffffffffff5d576e7357a4501ddfe92f46681b20a08411156116fb57506000915060039050826117b0565b604080516000808252602082018084528a905260ff891692820192909252606081018790526080810186905260019060a0016020604051602081039080840390855afa15801561174f573d6000803e3d6000fd5b50506040517fffffffffffffffffffffffffffffffffffffffffffffffffffffffffffffffe0015191505073ffffffffffffffffffffffffffffffffffffffff81166117a6575060009250600191508290506117b0565b9250600091508190505b9450945094915050565b803573ffffffffffffffffffffffffffffffffffffffff811681146117de57600080fd5b919050565b600080604083850312156117f657600080fd5b6117ff836117ba565b946020939093013593505050565b7fffffffff000000000000000000000000000000000000000000000000000000008116811461092257600080fd5b60006020828403121561184d57600080fd5b81356118588161180d565b9392505050565b7f4e487b7100000000000000000000000000000000000000000000000000000000600052604160045260246000fd5b604051601f82017fffffffffffffffffffffffffffffffffffffffffffffffffffffffffffffffe016810167ffffffffffffffff811182821017156118d5576118d561185f565b604052919050565b600082601f8301126118ee57600080fd5b813567ffffffffffffffff8111156119085761190861185f565b61193960207fffffffffffffffffffffffffffffffffffffffffffffffffffffffffffffffe0601f8401160161188e565b81815284602083860101111561194e57600080fd5b816020850160208301376000918101602001919091529392505050565b60006020828403121561197d57600080fd5b813567ffffffffffffffff81111561199457600080fd5b6119a0848285016118dd565b949350505050565b6000602082840312156119ba57600080fd5b5035919050565b60005b838110156119dc5781810151838201526020016119c4565b50506000910152565b600081518084526119fd8160208601602086016119c1565b601f017fffffffffffffffffffffffffffffffffffffffffffffffffffffffffffffffe0169290920160200192915050565b60208152600061185860208301846119e5565b600067ffffffffffffffff821115611a5c57611a5c61185f565b5060051b60200190565b600082601f830112611a7757600080fd5b81356020611a8c611a8783611a42565b61188e565b8083825260208201915060208460051b870101935086841115611aae57600080fd5b602086015b84811015611aca5780358352918301918301611ab3565b509695505050505050565b600080600080600060a08688031215611aed57600080fd5b611af6866117ba565b9450611b04602087016117ba565b9350604086013567ffffffffffffffff80821115611b2157600080fd5b611b2d89838a01611a66565b94506060880135915080821115611b4357600080fd5b611b4f89838a01611a66565b93506080880135915080821115611b6557600080fd5b50611b72888289016118dd565b9150509295509295909350565b60008060408385031215611b9257600080fd5b823567ffffffffffffffff80821115611baa57600080fd5b818501915085601f830112611bbe57600080fd5b81356020611bce611a8783611a42565b82815260059290921b84018101918181019089841115611bed57600080fd5b948201945b83861015611c1257611c03866117ba565b82529482019490820190611bf2565b96505086013592505080821115611c2857600080fd5b50611c3585828601611a66565b9150509250929050565b60008151808452602080850194506020840160005b83811015611c7057815187529582019590820190600101611c54565b509495945050505050565b6020815260006118586020830184611c3f565b600060208284031215611ca057600080fd5b611858826117ba565b60008060408385031215611cbc57600080fd5b611cc5836117ba565b915060208301358015158114611cda57600080fd5b809150509250929050565b60008060008060808587031215611cfb57600080fd5b611d04856117ba565b935060208501359250604085013567ffffffffffffffff80821115611d2857600080fd5b611d34888389016118dd565b93506060870135915080821115611d4a57600080fd5b50611d57878288016118dd565b91505092959194509250565b60008060408385031215611d7657600080fd5b611d7f836117ba565b9150611d8d602084016117ba565b90509250929050565b600080600080600060a08688031215611dae57600080fd5b611db7866117ba565b9450611dc5602087016117ba565b93506040860135925060608601359150608086013567ffffffffffffffff811115611def57600080fd5b611b72888289016118dd565b600181811c90821680611e0f57607f821691505b602082108103611e48577f4e487b7100000000000000000000000000000000000000000000000000000000600052602260045260246000fd5b50919050565b601f821115611e96576000816000526020600020601f850160051c81016020861015611e775750805b601f850160051c820191505b8181101561049e57828155600101611e83565b505050565b815167ffffffffffffffff811115611eb557611eb561185f565b611ec981611ec38454611dfb565b84611e4e565b602080601f831160018114611f1c5760008415611ee65750858301515b7fffffffffffffffffffffffffffffffffffffffffffffffffffffffffffffffff600386901b1c1916600185901b17855561049e565b6000858152602081207fffffffffffffffffffffffffffffffffffffffffffffffffffffffffffffffe08616915b82811015611f6957888601518255948401946001909101908401611f4a565b5085821015611fa557878501517fffffffffffffffffffffffffffffffffffffffffffffffffffffffffffffffff600388901b60f8161c191681555b5050505050600190811b01905550565b6000808454611fc381611dfb565b60018281168015611fdb576001811461200e5761203d565b7fffffffffffffffffffffffffffffffffffffffffffffffffffffffffffffff008416875282151583028701945061203d565b8860005260208060002060005b858110156120345781548a82015290840190820161201b565b50505082870194505b5050505083516120518183602088016119c1565b7f2e6a736f6e0000000000000000000000000000000000000000000000000000009101908152600501949350505050565b7f4e487b7100000000000000000000000000000000000000000000000000000000600052603260045260246000fd5b600082516120c38184602087016119c1565b9190910192915050565b7fffffffffffffffffffffffffffffffffffffffff0000000000000000000000008460601b1681526000835161210a8160148501602088016119c1565b60149201918201929092526034019392505050565b7f4e487b7100000000000000000000000000000000000000000000000000000000600052602160045260246000fd5b808201808211156102a6577f4e487b7100000000000000000000000000000000000000000000000000000000600052601160045260246000fd5b60408152600061219b6040830185611c3f565b82810360208401526121ad8185611c3f565b95945050505050565b600073ffffffffffffffffffffffffffffffffffffffff808816835280871660208401525084604083015283606083015260a060808301526121fb60a08301846119e5565b979650505050505050565b60006020828403121561221857600080fd5b81516118588161180d565b600073ffffffffffffffffffffffffffffffffffffffff808816835280871660208401525060a0604083015261225c60a0830186611c3f565b828103606084015261226e8186611c3f565b9050828103608084015261228281856119e5565b9897505050505050505056fea164736f6c6343000817000a",
  "linkReferences": {},
  "deployedLinkReferences": {}
}