{
  "_format": "hh-sol-artifact-1",
  "contractName": "AstraRewardsNativeMerkle",
  "sourceName": "contracts/AstraRewardNativeMerkle.sol",
  "abi": [
    {
      "inputs": [
        {
          "internalType": "address",
          "name": "owner_",
          "type": "address"
        },
        {
          "internalType": "bytes32",
          "name": "_whitelistRoot",
          "type": "bytes32"
        }
      ],
      "stateMutability": "nonpayable",
      "type": "constructor"
    },
    {
      "inputs": [
        {
          "internalType": "address",
          "name": "target",
          "type": "address"
        }
      ],
      "name": "AddressEmptyCode",
      "type": "error"
    },
    {
      "inputs": [
        {
          "internalType": "address",
          "name": "account",
          "type": "address"
        }
      ],
      "name": "AddressInsufficientBalance",
      "type": "error"
    },
    {
      "inputs": [],
      "name": "FailedInnerCall",
      "type": "error"
    },
    {
      "inputs": [
        {
          "internalType": "address",
          "name": "owner",
          "type": "address"
        }
      ],
      "name": "OwnableInvalidOwner",
      "type": "error"
    },
    {
      "inputs": [
        {
          "internalType": "address",
          "name": "account",
          "type": "address"
        }
      ],
      "name": "OwnableUnauthorizedAccount",
      "type": "error"
    },
    {
      "inputs": [],
      "name": "ReentrancyGuardReentrantCall",
      "type": "error"
    },
    {
      "inputs": [
        {
          "internalType": "address",
          "name": "token",
          "type": "address"
        }
      ],
      "name": "SafeERC20FailedOperation",
      "type": "error"
    },
    {
      "anonymous": false,
      "inputs": [
        {
          "indexed": true,
          "internalType": "uint256",
          "name": "value",
          "type": "uint256"
        },
        {
          "indexed": true,
          "internalType": "address",
          "name": "winner",
          "type": "address"
        }
      ],
      "name": "Claim",
      "type": "event"
    },
    {
      "anonymous": false,
      "inputs": [
        {
          "indexed": true,
          "internalType": "address",
          "name": "previousOwner",
          "type": "address"
        },
        {
          "indexed": true,
          "internalType": "address",
          "name": "newOwner",
          "type": "address"
        }
      ],
      "name": "OwnershipTransferred",
      "type": "event"
    },
    {
      "inputs": [],
      "name": "astra",
      "outputs": [
        {
          "internalType": "string",
          "name": "",
          "type": "string"
        }
      ],
      "stateMutability": "pure",
      "type": "function"
    },
    {
      "inputs": [
        {
          "internalType": "uint256",
          "name": "amount",
          "type": "uint256"
        },
        {
          "internalType": "bytes32[]",
          "name": "_proof",
          "type": "bytes32[]"
        }
      ],
      "name": "claim",
      "outputs": [],
      "stateMutability": "nonpayable",
      "type": "function"
    },
    {
      "inputs": [],
      "name": "owner",
      "outputs": [
        {
          "internalType": "address",
          "name": "",
          "type": "address"
        }
      ],
      "stateMutability": "view",
      "type": "function"
    },
    {
      "inputs": [],
      "name": "renounceOwnership",
      "outputs": [],
      "stateMutability": "nonpayable",
      "type": "function"
    },
    {
      "inputs": [
        {
          "internalType": "bytes32",
          "name": "_whitelistRoot",
          "type": "bytes32"
        }
      ],
      "name": "setMerkleRoot",
      "outputs": [],
      "stateMutability": "nonpayable",
      "type": "function"
    },
    {
      "inputs": [
        {
          "internalType": "address",
          "name": "newOwner",
          "type": "address"
        }
      ],
      "name": "transferOwnership",
      "outputs": [],
      "stateMutability": "nonpayable",
      "type": "function"
    },
    {
      "inputs": [],
      "name": "whitelistRoot",
      "outputs": [
        {
          "internalType": "bytes32",
          "name": "",
          "type": "bytes32"
        }
      ],
      "stateMutability": "view",
      "type": "function"
    },
    {
      "inputs": [
        {
          "internalType": "uint256",
          "name": "amount",
          "type": "uint256"
        }
      ],
      "name": "withdraw",
      "outputs": [],
      "stateMutability": "nonpayable",
      "type": "function"
    },
    {
      "inputs": [
        {
          "internalType": "address",
          "name": "token",
          "type": "address"
        },
        {
          "internalType": "uint256",
          "name": "amount",
          "type": "uint256"
        }
      ],
      "name": "withdraw",
      "outputs": [],
      "stateMutability": "nonpayable",
      "type": "function"
    },
    {
      "stateMutability": "payable",
      "type": "receive"
    }
  ],
  "bytecode": "0x608060405234801561001057600080fd5b50604051610d3f380380610d3f83398101604081905261002f9161011c565b816001600160a01b03811661005f57604051631e4fbdf760e01b8152600060048201526024015b60405180910390fd5b610068816100cc565b50600180556001600160a01b0382166100c35760405162461bcd60e51b815260206004820152601460248201527f41737472613a206f776e6572206973207a65726f0000000000000000000000006044820152606401610056565b60035550610156565b600080546001600160a01b038381166001600160a01b0319831681178455604051919092169283917f8be0079c531659141344cd1fd0a4f28419497f9722a3daafe3b4186f6b6457e09190a35050565b6000806040838503121561012f57600080fd5b82516001600160a01b038116811461014657600080fd5b6020939093015192949293505050565b610bda806101656000396000f3fe60806040526004361061009a5760003560e01c80637cb6475911610069578063f2fde38b1161004e578063f2fde38b1461017b578063f3fef3a31461019b578063fee5449a146101bb57600080fd5b80637cb64759146101265780638da5cb5b1461014657600080fd5b80632e1a7d4d146100a65780632f52ebb7146100c8578063386bfc98146100e8578063715018a61461011157600080fd5b366100a157005b600080fd5b3480156100b257600080fd5b506100c66100c13660046109e5565b610207565b005b3480156100d457600080fd5b506100c66100e33660046109fe565b610275565b3480156100f457600080fd5b506100fe60035481565b6040519081526020015b60405180910390f35b34801561011d57600080fd5b506100c661051e565b34801561013257600080fd5b506100c66101413660046109e5565b610532565b34801561015257600080fd5b5060005460405173ffffffffffffffffffffffffffffffffffffffff9091168152602001610108565b34801561018757600080fd5b506100c6610196366004610aa6565b61053f565b3480156101a757600080fd5b506100c66101b6366004610ac1565b6105a3565b3480156101c757600080fd5b50604080518082018252601381527f5065722061737065726120616420617374726100000000000000000000000000602082015290516101089190610b0f565b61020f6105d0565b6000805460405173ffffffffffffffffffffffffffffffffffffffff9091169083908381818185875af1925050503d8060008114610269576040519150601f19603f3d011682016040523d82523d6000602084013e61026e565b606091505b5050505050565b61027d610623565b3360009081526002602052604090205460ff16156102fc576040517f08c379a000000000000000000000000000000000000000000000000000000000815260206004820152601660248201527f41737472613a20616c726561647920636c61696d65640000000000000000000060448201526064015b60405180910390fd5b6040517fffffffffffffffffffffffffffffffffffffffff0000000000000000000000003360601b16602082015260348101849052600090605401604051602081830303815290604052805190602001209050610390838380806020026020016040519081016040528093929190818152602001838360200280828437600092019190915250506003549150849050610666565b6103f6576040517f08c379a000000000000000000000000000000000000000000000000000000000815260206004820152600d60248201527f496e76616c69642070726f6f660000000000000000000000000000000000000060448201526064016102f3565b3360008181526002602052604080822080547fffffffffffffffffffffffffffffffffffffffffffffffffffffffffffffff001660011790555186917f35538759d80c1fd7bb450a0d05601db5a99fa8b5d073a07c847a9fd61029b10791a3831561050f57604051600090339086908381818185875af1925050503d806000811461049d576040519150601f19603f3d011682016040523d82523d6000602084013e6104a2565b606091505b505090508061050d576040517f08c379a000000000000000000000000000000000000000000000000000000000815260206004820152601b60248201527f41737472613a204661696c656420746f2073656e64204574686572000000000060448201526064016102f3565b505b5061051960018055565b505050565b6105266105d0565b610530600061067e565b565b61053a6105d0565b600355565b6105476105d0565b73ffffffffffffffffffffffffffffffffffffffff8116610597576040517f1e4fbdf7000000000000000000000000000000000000000000000000000000008152600060048201526024016102f3565b6105a08161067e565b50565b6105ab6105d0565b6105cc73ffffffffffffffffffffffffffffffffffffffff831633836106f3565b5050565b60005473ffffffffffffffffffffffffffffffffffffffff163314610530576040517f118cdaa70000000000000000000000000000000000000000000000000000000081523360048201526024016102f3565b60026001540361065f576040517f3ee5aeb500000000000000000000000000000000000000000000000000000000815260040160405180910390fd5b6002600155565b6000826106738584610780565b1490505b9392505050565b6000805473ffffffffffffffffffffffffffffffffffffffff8381167fffffffffffffffffffffffff0000000000000000000000000000000000000000831681178455604051919092169283917f8be0079c531659141344cd1fd0a4f28419497f9722a3daafe3b4186f6b6457e09190a35050565b6040805173ffffffffffffffffffffffffffffffffffffffff8416602482015260448082018490528251808303909101815260649091019091526020810180517bffffffffffffffffffffffffffffffffffffffffffffffffffffffff167fa9059cbb000000000000000000000000000000000000000000000000000000001790526105199084906107c3565b600081815b84518110156107bb576107b1828683815181106107a4576107a4610b60565b6020026020010151610859565b9150600101610785565b509392505050565b60006107e573ffffffffffffffffffffffffffffffffffffffff841683610885565b9050805160001415801561080a5750808060200190518101906108089190610b8f565b155b15610519576040517f5274afe700000000000000000000000000000000000000000000000000000000815273ffffffffffffffffffffffffffffffffffffffff841660048201526024016102f3565b6000818310610875576000828152602084905260409020610677565b5060009182526020526040902090565b606061067783836000846000808573ffffffffffffffffffffffffffffffffffffffff1684866040516108b89190610bb1565b60006040518083038185875af1925050503d80600081146108f5576040519150601f19603f3d011682016040523d82523d6000602084013e6108fa565b606091505b509150915061090a868383610914565b9695505050505050565b60608261092957610924826109a3565b610677565b815115801561094d575073ffffffffffffffffffffffffffffffffffffffff84163b155b1561099c576040517f9996b31500000000000000000000000000000000000000000000000000000000815273ffffffffffffffffffffffffffffffffffffffff851660048201526024016102f3565b5080610677565b8051156109b35780518082602001fd5b6040517f1425ea4200000000000000000000000000000000000000000000000000000000815260040160405180910390fd5b6000602082840312156109f757600080fd5b5035919050565b600080600060408486031215610a1357600080fd5b83359250602084013567ffffffffffffffff80821115610a3257600080fd5b818601915086601f830112610a4657600080fd5b813581811115610a5557600080fd5b8760208260051b8501011115610a6a57600080fd5b6020830194508093505050509250925092565b803573ffffffffffffffffffffffffffffffffffffffff81168114610aa157600080fd5b919050565b600060208284031215610ab857600080fd5b61067782610a7d565b60008060408385031215610ad457600080fd5b610add83610a7d565b946020939093013593505050565b60005b83811015610b06578181015183820152602001610aee565b50506000910152565b6020815260008251806020840152610b2e816040850160208701610aeb565b601f017fffffffffffffffffffffffffffffffffffffffffffffffffffffffffffffffe0169190910160400192915050565b7f4e487b7100000000000000000000000000000000000000000000000000000000600052603260045260246000fd5b600060208284031215610ba157600080fd5b8151801515811461067757600080fd5b60008251610bc3818460208701610aeb565b919091019291505056fea164736f6c6343000817000a",
  "linkReferences": {},
  "deployedLinkReferences": {}
}