{
  "_format": "hh-sol-artifact-1",
  "contractName": "AstraRewardsNative",
  "sourceName": "contracts/AstraRewardsNative.sol",
  "abi": [
    {
      "inputs": [
        {
          "internalType": "address",
          "name": "owner_",
          "type": "address"
        },
        {
          "internalType": "address[]",
          "name": "signers_",
          "type": "address[]"
        }
      ],
      "stateMutability": "nonpayable",
      "type": "constructor"
    },
    {
      "inputs": [
        {
          "internalType": "address",
          "name": "target",
          "type": "address"
        }
      ],
      "name": "AddressEmptyCode",
      "type": "error"
    },
    {
      "inputs": [
        {
          "internalType": "address",
          "name": "account",
          "type": "address"
        }
      ],
      "name": "AddressInsufficientBalance",
      "type": "error"
    },
    {
      "inputs": [],
      "name": "ECDSAInvalidSignature",
      "type": "error"
    },
    {
      "inputs": [
        {
          "internalType": "uint256",
          "name": "length",
          "type": "uint256"
        }
      ],
      "name": "ECDSAInvalidSignatureLength",
      "type": "error"
    },
    {
      "inputs": [
        {
          "internalType": "bytes32",
          "name": "s",
          "type": "bytes32"
        }
      ],
      "name": "ECDSAInvalidSignatureS",
      "type": "error"
    },
    {
      "inputs": [],
      "name": "FailedInnerCall",
      "type": "error"
    },
    {
      "inputs": [
        {
          "internalType": "address",
          "name": "owner",
          "type": "address"
        }
      ],
      "name": "OwnableInvalidOwner",
      "type": "error"
    },
    {
      "inputs": [
        {
          "internalType": "address",
          "name": "account",
          "type": "address"
        }
      ],
      "name": "OwnableUnauthorizedAccount",
      "type": "error"
    },
    {
      "inputs": [],
      "name": "ReentrancyGuardReentrantCall",
      "type": "error"
    },
    {
      "inputs": [
        {
          "internalType": "address",
          "name": "token",
          "type": "address"
        }
      ],
      "name": "SafeERC20FailedOperation",
      "type": "error"
    },
    {
      "anonymous": false,
      "inputs": [
        {
          "indexed": true,
          "internalType": "uint256",
          "name": "value",
          "type": "uint256"
        },
        {
          "indexed": true,
          "internalType": "address",
          "name": "winner",
          "type": "address"
        }
      ],
      "name": "Claim",
      "type": "event"
    },
    {
      "anonymous": false,
      "inputs": [
        {
          "indexed": true,
          "internalType": "address",
          "name": "previousOwner",
          "type": "address"
        },
        {
          "indexed": true,
          "internalType": "address",
          "name": "newOwner",
          "type": "address"
        }
      ],
      "name": "OwnershipTransferred",
      "type": "event"
    },
    {
      "inputs": [],
      "name": "astra",
      "outputs": [
        {
          "internalType": "string",
          "name": "",
          "type": "string"
        }
      ],
      "stateMutability": "pure",
      "type": "function"
    },
    {
      "inputs": [
        {
          "components": [
            {
              "internalType": "uint256",
              "name": "value",
              "type": "uint256"
            },
            {
              "internalType": "uint64",
              "name": "expiredTimestamp",
              "type": "uint64"
            },
            {
              "internalType": "uint64",
              "name": "flag",
              "type": "uint64"
            }
          ],
          "internalType": "struct AstraRewardsNative.Card",
          "name": "card",
          "type": "tuple"
        },
        {
          "internalType": "bytes",
          "name": "sign",
          "type": "bytes"
        }
      ],
      "name": "claim",
      "outputs": [],
      "stateMutability": "nonpayable",
      "type": "function"
    },
    {
      "inputs": [
        {
          "internalType": "address",
          "name": "winner",
          "type": "address"
        },
        {
          "components": [
            {
              "internalType": "uint256",
              "name": "value",
              "type": "uint256"
            },
            {
              "internalType": "uint64",
              "name": "expiredTimestamp",
              "type": "uint64"
            },
            {
              "internalType": "uint64",
              "name": "flag",
              "type": "uint64"
            }
          ],
          "internalType": "struct AstraRewardsNative.Card",
          "name": "card",
          "type": "tuple"
        }
      ],
      "name": "encodeCard",
      "outputs": [
        {
          "internalType": "bytes32",
          "name": "data",
          "type": "bytes32"
        }
      ],
      "stateMutability": "pure",
      "type": "function"
    },
    {
      "inputs": [],
      "name": "owner",
      "outputs": [
        {
          "internalType": "address",
          "name": "",
          "type": "address"
        }
      ],
      "stateMutability": "view",
      "type": "function"
    },
    {
      "inputs": [],
      "name": "renounceOwnership",
      "outputs": [],
      "stateMutability": "nonpayable",
      "type": "function"
    },
    {
      "inputs": [
        {
          "internalType": "address[]",
          "name": "signers",
          "type": "address[]"
        },
        {
          "internalType": "bool[]",
          "name": "status",
          "type": "bool[]"
        }
      ],
      "name": "setSigners",
      "outputs": [],
      "stateMutability": "nonpayable",
      "type": "function"
    },
    {
      "inputs": [
        {
          "internalType": "address",
          "name": "newOwner",
          "type": "address"
        }
      ],
      "name": "transferOwnership",
      "outputs": [],
      "stateMutability": "nonpayable",
      "type": "function"
    },
    {
      "inputs": [
        {
          "internalType": "uint256",
          "name": "amount",
          "type": "uint256"
        }
      ],
      "name": "withdraw",
      "outputs": [],
      "stateMutability": "nonpayable",
      "type": "function"
    },
    {
      "inputs": [
        {
          "internalType": "address",
          "name": "token",
          "type": "address"
        },
        {
          "internalType": "uint256",
          "name": "amount",
          "type": "uint256"
        }
      ],
      "name": "withdraw",
      "outputs": [],
      "stateMutability": "nonpayable",
      "type": "function"
    },
    {
      "stateMutability": "payable",
      "type": "receive"
    }
  ],
  "bytecode": "0x60806040523480156200001157600080fd5b50604051620015b9380380620015b983398101604081905262000034916200022f565b816001600160a01b0381166200006557604051631e4fbdf760e01b8152600060048201526024015b60405180910390fd5b6200007081620001ac565b50600180556001600160a01b038216620000cd5760405162461bcd60e51b815260206004820152601460248201527f41737472613a206f776e6572206973207a65726f00000000000000000000000060448201526064016200005c565b60005b8151811015620001a35760006001600160a01b0316828281518110620000fa57620000fa62000318565b60200260200101516001600160a01b0316036200014d5760405162461bcd60e51b815260206004820152601060248201526f20b9ba39309d1037379039b4b3b732b960811b60448201526064016200005c565b60016002600084848151811062000168576200016862000318565b6020908102919091018101516001600160a01b03168252810191909152604001600020805460ff1916911515919091179055600101620000d0565b5050506200032e565b600080546001600160a01b038381166001600160a01b0319831681178455604051919092169283917f8be0079c531659141344cd1fd0a4f28419497f9722a3daafe3b4186f6b6457e09190a35050565b80516001600160a01b03811681146200021457600080fd5b919050565b634e487b7160e01b600052604160045260246000fd5b600080604083850312156200024357600080fd5b6200024e83620001fc565b602084810151919350906001600160401b03808211156200026e57600080fd5b818601915086601f8301126200028357600080fd5b81518181111562000298576200029862000219565b8060051b604051601f19603f83011681018181108582111715620002c057620002c062000219565b604052918252848201925083810185019189831115620002df57600080fd5b938501935b828510156200030857620002f885620001fc565b84529385019392850192620002e4565b8096505050505050509250929050565b634e487b7160e01b600052603260045260246000fd5b61127b806200033e6000396000f3fe60806040526004361061009a5760003560e01c80638da5cb5b11610069578063f2fde38b1161004e578063f2fde38b14610185578063f3fef3a3146101a5578063fee5449a146101c557600080fd5b80638da5cb5b14610130578063e0ddf1f71461016557600080fd5b80632e1a7d4d146100a657806335abdfa4146100c8578063715018a6146100fb57806389102c211461011057600080fd5b366100a157005b600080fd5b3480156100b257600080fd5b506100c66100c1366004610e2f565b610211565b005b3480156100d457600080fd5b506100e86100e3366004610e89565b61027f565b6040519081526020015b60405180910390f35b34801561010757600080fd5b506100c6610306565b34801561011c57600080fd5b506100c661012b366004610f09565b61031a565b34801561013c57600080fd5b5060005460405173ffffffffffffffffffffffffffffffffffffffff90911681526020016100f2565b34801561017157600080fd5b506100c6610180366004610f75565b6103da565b34801561019157600080fd5b506100c66101a0366004610ff9565b6106df565b3480156101b157600080fd5b506100c66101c0366004611014565b610743565b3480156101d157600080fd5b50604080518082018252601381527f5065722061737065726120616420617374726100000000000000000000000000602082015290516100f29190611062565b610219610770565b6000805460405173ffffffffffffffffffffffffffffffffffffffff9091169083908381818185875af1925050503d8060008114610273576040519150601f19603f3d011682016040523d82523d6000602084013e610278565b606091505b5050505050565b60006102ff83610294368590038501856110cb565b8051602080830151604093840151845173ffffffffffffffffffffffffffffffffffffffff96909616868401528585019390935267ffffffffffffffff90811660608601529091166080808501919091528251808503909101815260a0909301909152815191012090565b9392505050565b61030e610770565b61031860006107c3565b565b610322610770565b60005b838110156102785782828281811061033f5761033f611157565b90506020020160208101906103549190611194565b6002600087878581811061036a5761036a611157565b905060200201602081019061037f9190610ff9565b73ffffffffffffffffffffffffffffffffffffffff168152602081019190915260400160002080547fffffffffffffffffffffffffffffffffffffffffffffffffffffffffffffff0016911515919091179055600101610325565b6103e2610838565b3360009081526003602052604081205460ff1615610461576040517f08c379a000000000000000000000000000000000000000000000000000000000815260206004820152601660248201527f41737472613a20616c726561647920636c61696d65640000000000000000000060448201526064015b60405180910390fd5b3360009081526003602090815260409182902080547fffffffffffffffffffffffffffffffffffffffffffffffffffffffffffffff0016600117905542916104ae919087019087016111b1565b67ffffffffffffffff161015610520576040517f08c379a000000000000000000000000000000000000000000000000000000000815260206004820152600e60248201527f41737472613a20657870697265640000000000000000000000000000000000006044820152606401610458565b61057261053633610294368890038801886110cb565b84848080601f01602080910402602001604051908101604052809392919081815260200183838082843760009201919091525061087b92505050565b6105d8576040517f08c379a000000000000000000000000000000000000000000000000000000000815260206004820152601660248201527f41737472613a207369676e6174757265206572726f72000000000000000000006044820152606401610458565b6105e38435826111cc565b60405190915033908535907f35538759d80c1fd7bb450a0d05601db5a99fa8b5d073a07c847a9fd61029b10790600090a38335156106d05760405160009033908635908381818185875af1925050503d806000811461065e576040519150601f19603f3d011682016040523d82523d6000602084013e610663565b606091505b50509050806106ce576040517f08c379a000000000000000000000000000000000000000000000000000000000815260206004820152601b60248201527f41737472613a204661696c656420746f2073656e6420457468657200000000006044820152606401610458565b505b506106da60018055565b505050565b6106e7610770565b73ffffffffffffffffffffffffffffffffffffffff8116610737576040517f1e4fbdf700000000000000000000000000000000000000000000000000000000815260006004820152602401610458565b610740816107c3565b50565b61074b610770565b61076c73ffffffffffffffffffffffffffffffffffffffff831633836108f5565b5050565b60005473ffffffffffffffffffffffffffffffffffffffff163314610318576040517f118cdaa7000000000000000000000000000000000000000000000000000000008152336004820152602401610458565b6000805473ffffffffffffffffffffffffffffffffffffffff8381167fffffffffffffffffffffffff0000000000000000000000000000000000000000831681178455604051919092169283917f8be0079c531659141344cd1fd0a4f28419497f9722a3daafe3b4186f6b6457e09190a35050565b600260015403610874576040517f3ee5aeb500000000000000000000000000000000000000000000000000000000815260040160405180910390fd5b6002600155565b6000600260006108c2846108bc877f19457468657265756d205369676e6564204d6573736167653a0a3332000000006000908152601c91909152603c902090565b90610982565b73ffffffffffffffffffffffffffffffffffffffff16815260208101919091526040016000205460ff1690505b92915050565b6040805173ffffffffffffffffffffffffffffffffffffffff8416602482015260448082018490528251808303909101815260649091019091526020810180517bffffffffffffffffffffffffffffffffffffffffffffffffffffffff167fa9059cbb000000000000000000000000000000000000000000000000000000001790526106da9084906109ac565b6000806000806109928686610a42565b9250925092506109a28282610a8f565b5090949350505050565b60006109ce73ffffffffffffffffffffffffffffffffffffffff841683610b93565b905080516000141580156109f35750808060200190518101906109f19190611206565b155b156106da576040517f5274afe700000000000000000000000000000000000000000000000000000000815273ffffffffffffffffffffffffffffffffffffffff84166004820152602401610458565b60008060008351604103610a7c5760208401516040850151606086015160001a610a6e88828585610ba1565b955095509550505050610a88565b50508151600091506002905b9250925092565b6000826003811115610aa357610aa3611223565b03610aac575050565b6001826003811115610ac057610ac0611223565b03610af7576040517ff645eedf00000000000000000000000000000000000000000000000000000000815260040160405180910390fd5b6002826003811115610b0b57610b0b611223565b03610b45576040517ffce698f700000000000000000000000000000000000000000000000000000000815260048101829052602401610458565b6003826003811115610b5957610b59611223565b0361076c576040517fd78bce0c00000000000000000000000000000000000000000000000000000000815260048101829052602401610458565b60606102ff83836000610c9b565b600080807f7fffffffffffffffffffffffffffffff5d576e7357a4501ddfe92f46681b20a0841115610bdc5750600091506003905082610c91565b604080516000808252602082018084528a905260ff891692820192909252606081018790526080810186905260019060a0016020604051602081039080840390855afa158015610c30573d6000803e3d6000fd5b50506040517fffffffffffffffffffffffffffffffffffffffffffffffffffffffffffffffe0015191505073ffffffffffffffffffffffffffffffffffffffff8116610c8757506000925060019150829050610c91565b9250600091508190505b9450945094915050565b606081471015610cd9576040517fcd786059000000000000000000000000000000000000000000000000000000008152306004820152602401610458565b6000808573ffffffffffffffffffffffffffffffffffffffff168486604051610d029190611252565b60006040518083038185875af1925050503d8060008114610d3f576040519150601f19603f3d011682016040523d82523d6000602084013e610d44565b606091505b5091509150610d54868383610d5e565b9695505050505050565b606082610d7357610d6e82610ded565b6102ff565b8151158015610d97575073ffffffffffffffffffffffffffffffffffffffff84163b155b15610de6576040517f9996b31500000000000000000000000000000000000000000000000000000000815273ffffffffffffffffffffffffffffffffffffffff85166004820152602401610458565b50806102ff565b805115610dfd5780518082602001fd5b6040517f1425ea4200000000000000000000000000000000000000000000000000000000815260040160405180910390fd5b600060208284031215610e4157600080fd5b5035919050565b803573ffffffffffffffffffffffffffffffffffffffff81168114610e6c57600080fd5b919050565b600060608284031215610e8357600080fd5b50919050565b60008060808385031215610e9c57600080fd5b610ea583610e48565b9150610eb48460208501610e71565b90509250929050565b60008083601f840112610ecf57600080fd5b50813567ffffffffffffffff811115610ee757600080fd5b6020830191508360208260051b8501011115610f0257600080fd5b9250929050565b60008060008060408587031215610f1f57600080fd5b843567ffffffffffffffff80821115610f3757600080fd5b610f4388838901610ebd565b90965094506020870135915080821115610f5c57600080fd5b50610f6987828801610ebd565b95989497509550505050565b600080600060808486031215610f8a57600080fd5b610f948585610e71565b9250606084013567ffffffffffffffff80821115610fb157600080fd5b818601915086601f830112610fc557600080fd5b813581811115610fd457600080fd5b876020828501011115610fe657600080fd5b6020830194508093505050509250925092565b60006020828403121561100b57600080fd5b6102ff82610e48565b6000806040838503121561102757600080fd5b61103083610e48565b946020939093013593505050565b60005b83811015611059578181015183820152602001611041565b50506000910152565b602081526000825180602084015261108181604085016020870161103e565b601f017fffffffffffffffffffffffffffffffffffffffffffffffffffffffffffffffe0169190910160400192915050565b803567ffffffffffffffff81168114610e6c57600080fd5b6000606082840312156110dd57600080fd5b6040516060810181811067ffffffffffffffff82111715611127577f4e487b7100000000000000000000000000000000000000000000000000000000600052604160045260246000fd5b6040528235815261113a602084016110b3565b602082015261114b604084016110b3565b60408201529392505050565b7f4e487b7100000000000000000000000000000000000000000000000000000000600052603260045260246000fd5b801515811461074057600080fd5b6000602082840312156111a657600080fd5b81356102ff81611186565b6000602082840312156111c357600080fd5b6102ff826110b3565b808201808211156108ef577f4e487b7100000000000000000000000000000000000000000000000000000000600052601160045260246000fd5b60006020828403121561121857600080fd5b81516102ff81611186565b7f4e487b7100000000000000000000000000000000000000000000000000000000600052602160045260246000fd5b6000825161126481846020870161103e565b919091019291505056fea164736f6c6343000817000a",
  "linkReferences": {},
  "deployedLinkReferences": {}
}