{
  "_format": "hh-sol-artifact-1",
  "contractName": "AstraGenesisNFT",
  "sourceName": "contracts/AstraGenesisNFT.sol",
  "abi": [
    {
      "inputs": [
        {
          "internalType": "string",
          "name": "name",
          "type": "string"
        },
        {
          "internalType": "string",
          "name": "symbol",
          "type": "string"
        },
        {
          "internalType": "address",
          "name": "_owner",
          "type": "address"
        },
        {
          "internalType": "string",
          "name": "_tokenURI",
          "type": "string"
        },
        {
          "internalType": "uint256",
          "name": "_maxSupply",
          "type": "uint256"
        },
        {
          "internalType": "bytes32",
          "name": "_whitelistMerkleRoot",
          "type": "bytes32"
        },
        {
          "internalType": "bytes32",
          "name": "_fcfsMerkleRoot",
          "type": "bytes32"
        }
      ],
      "stateMutability": "nonpayable",
      "type": "constructor"
    },
    {
      "inputs": [
        {
          "internalType": "address",
          "name": "sender",
          "type": "address"
        },
        {
          "internalType": "uint256",
          "name": "tokenId",
          "type": "uint256"
        },
        {
          "internalType": "address",
          "name": "owner",
          "type": "address"
        }
      ],
      "name": "ERC721IncorrectOwner",
      "type": "error"
    },
    {
      "inputs": [
        {
          "internalType": "address",
          "name": "operator",
          "type": "address"
        },
        {
          "internalType": "uint256",
          "name": "tokenId",
          "type": "uint256"
        }
      ],
      "name": "ERC721InsufficientApproval",
      "type": "error"
    },
    {
      "inputs": [
        {
          "internalType": "address",
          "name": "approver",
          "type": "address"
        }
      ],
      "name": "ERC721InvalidApprover",
      "type": "error"
    },
    {
      "inputs": [
        {
          "internalType": "address",
          "name": "operator",
          "type": "address"
        }
      ],
      "name": "ERC721InvalidOperator",
      "type": "error"
    },
    {
      "inputs": [
        {
          "internalType": "address",
          "name": "owner",
          "type": "address"
        }
      ],
      "name": "ERC721InvalidOwner",
      "type": "error"
    },
    {
      "inputs": [
        {
          "internalType": "address",
          "name": "receiver",
          "type": "address"
        }
      ],
      "name": "ERC721InvalidReceiver",
      "type": "error"
    },
    {
      "inputs": [
        {
          "internalType": "address",
          "name": "sender",
          "type": "address"
        }
      ],
      "name": "ERC721InvalidSender",
      "type": "error"
    },
    {
      "inputs": [
        {
          "internalType": "uint256",
          "name": "tokenId",
          "type": "uint256"
        }
      ],
      "name": "ERC721NonexistentToken",
      "type": "error"
    },
    {
      "inputs": [
        {
          "internalType": "address",
          "name": "owner",
          "type": "address"
        }
      ],
      "name": "OwnableInvalidOwner",
      "type": "error"
    },
    {
      "inputs": [
        {
          "internalType": "address",
          "name": "account",
          "type": "address"
        }
      ],
      "name": "OwnableUnauthorizedAccount",
      "type": "error"
    },
    {
      "anonymous": false,
      "inputs": [
        {
          "indexed": true,
          "internalType": "address",
          "name": "owner",
          "type": "address"
        },
        {
          "indexed": true,
          "internalType": "address",
          "name": "approved",
          "type": "address"
        },
        {
          "indexed": true,
          "internalType": "uint256",
          "name": "tokenId",
          "type": "uint256"
        }
      ],
      "name": "Approval",
      "type": "event"
    },
    {
      "anonymous": false,
      "inputs": [
        {
          "indexed": true,
          "internalType": "address",
          "name": "owner",
          "type": "address"
        },
        {
          "indexed": true,
          "internalType": "address",
          "name": "operator",
          "type": "address"
        },
        {
          "indexed": false,
          "internalType": "bool",
          "name": "approved",
          "type": "bool"
        }
      ],
      "name": "ApprovalForAll",
      "type": "event"
    },
    {
      "anonymous": false,
      "inputs": [
        {
          "indexed": true,
          "internalType": "address",
          "name": "previousOwner",
          "type": "address"
        },
        {
          "indexed": true,
          "internalType": "address",
          "name": "newOwner",
          "type": "address"
        }
      ],
      "name": "OwnershipTransferred",
      "type": "event"
    },
    {
      "anonymous": false,
      "inputs": [
        {
          "indexed": true,
          "internalType": "address",
          "name": "from",
          "type": "address"
        },
        {
          "indexed": true,
          "internalType": "address",
          "name": "to",
          "type": "address"
        },
        {
          "indexed": true,
          "internalType": "uint256",
          "name": "tokenId",
          "type": "uint256"
        }
      ],
      "name": "Transfer",
      "type": "event"
    },
    {
      "inputs": [
        {
          "internalType": "address",
          "name": "to",
          "type": "address"
        },
        {
          "internalType": "uint256",
          "name": "tokenId",
          "type": "uint256"
        }
      ],
      "name": "approve",
      "outputs": [],
      "stateMutability": "nonpayable",
      "type": "function"
    },
    {
      "inputs": [
        {
          "internalType": "address",
          "name": "owner",
          "type": "address"
        }
      ],
      "name": "balanceOf",
      "outputs": [
        {
          "internalType": "uint256",
          "name": "",
          "type": "uint256"
        }
      ],
      "stateMutability": "view",
      "type": "function"
    },
    {
      "inputs": [
        {
          "internalType": "address",
          "name": "",
          "type": "address"
        }
      ],
      "name": "claimed",
      "outputs": [
        {
          "internalType": "bool",
          "name": "",
          "type": "bool"
        }
      ],
      "stateMutability": "view",
      "type": "function"
    },
    {
      "inputs": [],
      "name": "fcfsMerkleRoot",
      "outputs": [
        {
          "internalType": "bytes32",
          "name": "",
          "type": "bytes32"
        }
      ],
      "stateMutability": "view",
      "type": "function"
    },
    {
      "inputs": [
        {
          "internalType": "bytes32[]",
          "name": "_merkleProof",
          "type": "bytes32[]"
        }
      ],
      "name": "fcfsMint",
      "outputs": [],
      "stateMutability": "payable",
      "type": "function"
    },
    {
      "inputs": [],
      "name": "fcfsOpenCountdown",
      "outputs": [
        {
          "internalType": "uint256",
          "name": "",
          "type": "uint256"
        }
      ],
      "stateMutability": "view",
      "type": "function"
    },
    {
      "inputs": [],
      "name": "fcfsStartDelay",
      "outputs": [
        {
          "internalType": "uint256",
          "name": "",
          "type": "uint256"
        }
      ],
      "stateMutability": "view",
      "type": "function"
    },
    {
      "inputs": [
        {
          "internalType": "uint256",
          "name": "tokenId",
          "type": "uint256"
        }
      ],
      "name": "getApproved",
      "outputs": [
        {
          "internalType": "address",
          "name": "",
          "type": "address"
        }
      ],
      "stateMutability": "view",
      "type": "function"
    },
    {
      "inputs": [],
      "name": "getStatus",
      "outputs": [
        {
          "internalType": "uint8",
          "name": "",
          "type": "uint8"
        }
      ],
      "stateMutability": "view",
      "type": "function"
    },
    {
      "inputs": [
        {
          "internalType": "address",
          "name": "owner",
          "type": "address"
        },
        {
          "internalType": "address",
          "name": "operator",
          "type": "address"
        }
      ],
      "name": "isApprovedForAll",
      "outputs": [
        {
          "internalType": "bool",
          "name": "",
          "type": "bool"
        }
      ],
      "stateMutability": "view",
      "type": "function"
    },
    {
      "inputs": [],
      "name": "maxSupply",
      "outputs": [
        {
          "internalType": "uint256",
          "name": "",
          "type": "uint256"
        }
      ],
      "stateMutability": "view",
      "type": "function"
    },
    {
      "inputs": [],
      "name": "mintStatus",
      "outputs": [
        {
          "internalType": "uint8",
          "name": "",
          "type": "uint8"
        }
      ],
      "stateMutability": "view",
      "type": "function"
    },
    {
      "inputs": [],
      "name": "name",
      "outputs": [
        {
          "internalType": "string",
          "name": "",
          "type": "string"
        }
      ],
      "stateMutability": "view",
      "type": "function"
    },
    {
      "inputs": [],
      "name": "owner",
      "outputs": [
        {
          "internalType": "address",
          "name": "",
          "type": "address"
        }
      ],
      "stateMutability": "view",
      "type": "function"
    },
    {
      "inputs": [
        {
          "internalType": "uint256",
          "name": "tokenId",
          "type": "uint256"
        }
      ],
      "name": "ownerOf",
      "outputs": [
        {
          "internalType": "address",
          "name": "",
          "type": "address"
        }
      ],
      "stateMutability": "view",
      "type": "function"
    },
    {
      "inputs": [],
      "name": "renounceOwnership",
      "outputs": [],
      "stateMutability": "nonpayable",
      "type": "function"
    },
    {
      "inputs": [
        {
          "internalType": "address",
          "name": "from",
          "type": "address"
        },
        {
          "internalType": "address",
          "name": "to",
          "type": "address"
        },
        {
          "internalType": "uint256",
          "name": "tokenId",
          "type": "uint256"
        }
      ],
      "name": "safeTransferFrom",
      "outputs": [],
      "stateMutability": "nonpayable",
      "type": "function"
    },
    {
      "inputs": [
        {
          "internalType": "address",
          "name": "from",
          "type": "address"
        },
        {
          "internalType": "address",
          "name": "to",
          "type": "address"
        },
        {
          "internalType": "uint256",
          "name": "tokenId",
          "type": "uint256"
        },
        {
          "internalType": "bytes",
          "name": "data",
          "type": "bytes"
        }
      ],
      "name": "safeTransferFrom",
      "outputs": [],
      "stateMutability": "nonpayable",
      "type": "function"
    },
    {
      "inputs": [
        {
          "internalType": "address",
          "name": "operator",
          "type": "address"
        },
        {
          "internalType": "bool",
          "name": "approved",
          "type": "bool"
        }
      ],
      "name": "setApprovalForAll",
      "outputs": [],
      "stateMutability": "nonpayable",
      "type": "function"
    },
    {
      "inputs": [
        {
          "internalType": "bytes32",
          "name": "_merkleRoot",
          "type": "bytes32"
        }
      ],
      "name": "setFCFSMerkleRoot",
      "outputs": [],
      "stateMutability": "nonpayable",
      "type": "function"
    },
    {
      "inputs": [
        {
          "internalType": "uint8",
          "name": "_status",
          "type": "uint8"
        }
      ],
      "name": "setMintStatus",
      "outputs": [],
      "stateMutability": "nonpayable",
      "type": "function"
    },
    {
      "inputs": [
        {
          "internalType": "string",
          "name": "_tokenURI",
          "type": "string"
        }
      ],
      "name": "setTokenURI",
      "outputs": [],
      "stateMutability": "nonpayable",
      "type": "function"
    },
    {
      "inputs": [
        {
          "internalType": "bytes32",
          "name": "_merkleRoot",
          "type": "bytes32"
        }
      ],
      "name": "setWhitelistMerkleRoot",
      "outputs": [],
      "stateMutability": "nonpayable",
      "type": "function"
    },
    {
      "inputs": [
        {
          "internalType": "bytes4",
          "name": "interfaceId",
          "type": "bytes4"
        }
      ],
      "name": "supportsInterface",
      "outputs": [
        {
          "internalType": "bool",
          "name": "",
          "type": "bool"
        }
      ],
      "stateMutability": "view",
      "type": "function"
    },
    {
      "inputs": [],
      "name": "symbol",
      "outputs": [
        {
          "internalType": "string",
          "name": "",
          "type": "string"
        }
      ],
      "stateMutability": "view",
      "type": "function"
    },
    {
      "inputs": [],
      "name": "tokenURI",
      "outputs": [
        {
          "internalType": "string",
          "name": "",
          "type": "string"
        }
      ],
      "stateMutability": "view",
      "type": "function"
    },
    {
      "inputs": [
        {
          "internalType": "uint256",
          "name": "tokenId",
          "type": "uint256"
        }
      ],
      "name": "tokenURI",
      "outputs": [
        {
          "internalType": "string",
          "name": "",
          "type": "string"
        }
      ],
      "stateMutability": "view",
      "type": "function"
    },
    {
      "inputs": [],
      "name": "totalSupply",
      "outputs": [
        {
          "internalType": "uint256",
          "name": "",
          "type": "uint256"
        }
      ],
      "stateMutability": "view",
      "type": "function"
    },
    {
      "inputs": [
        {
          "internalType": "address",
          "name": "from",
          "type": "address"
        },
        {
          "internalType": "address",
          "name": "to",
          "type": "address"
        },
        {
          "internalType": "uint256",
          "name": "tokenId",
          "type": "uint256"
        }
      ],
      "name": "transferFrom",
      "outputs": [],
      "stateMutability": "nonpayable",
      "type": "function"
    },
    {
      "inputs": [
        {
          "internalType": "address",
          "name": "newOwner",
          "type": "address"
        }
      ],
      "name": "transferOwnership",
      "outputs": [],
      "stateMutability": "nonpayable",
      "type": "function"
    },
    {
      "inputs": [],
      "name": "whitelistMerkleRoot",
      "outputs": [
        {
          "internalType": "bytes32",
          "name": "",
          "type": "bytes32"
        }
      ],
      "stateMutability": "view",
      "type": "function"
    },
    {
      "inputs": [
        {
          "internalType": "bytes32[]",
          "name": "_merkleProof",
          "type": "bytes32[]"
        }
      ],
      "name": "whitelistMint",
      "outputs": [],
      "stateMutability": "nonpayable",
      "type": "function"
    },
    {
      "inputs": [],
      "name": "whitelistStartTime",
      "outputs": [
        {
          "internalType": "uint256",
          "name": "",
          "type": "uint256"
        }
      ],
      "stateMutability": "view",
      "type": "function"
    },
    {
      "inputs": [],
      "name": "withdraw",
      "outputs": [],
      "stateMutability": "nonpayable",
      "type": "function"
    },
    {
      "inputs": [
        {
          "internalType": "address",
          "name": "_token",
          "type": "address"
        }
      ],
      "name": "withdrawERC20",
      "outputs": [],
      "stateMutability": "nonpayable",
      "type": "function"
    },
    {
      "inputs": [
        {
          "internalType": "uint256",
          "name": "_tokenId",
          "type": "uint256"
        }
      ],
      "name": "withdrawNFT",
      "outputs": [],
      "stateMutability": "nonpayable",
      "type": "function"
    }
  ],
  "bytecode": "0x6001600755600b805460ff1916905560a060405260006080908152600c90620000299082620001dc565b503480156200003757600080fd5b5060405162002ca938038062002ca98339810160408190526200005a916200035a565b84878760006200006b8382620001dc565b5060016200007a8282620001dc565b5050506001600160a01b038116620000ac57604051631e4fbdf760e01b81526000600482015260240160405180910390fd5b620000b781620000e3565b5060088390556009829055600a819055600c620000d58582620001dc565b50505050505050506200042a565b600680546001600160a01b038381166001600160a01b0319831681179093556040519116919082907f8be0079c531659141344cd1fd0a4f28419497f9722a3daafe3b4186f6b6457e090600090a35050565b634e487b7160e01b600052604160045260246000fd5b600181811c908216806200016057607f821691505b6020821081036200018157634e487b7160e01b600052602260045260246000fd5b50919050565b601f821115620001d7576000816000526020600020601f850160051c81016020861015620001b25750805b601f850160051c820191505b81811015620001d357828155600101620001be565b5050505b505050565b81516001600160401b03811115620001f857620001f862000135565b62000210816200020984546200014b565b8462000187565b602080601f8311600181146200024857600084156200022f5750858301515b600019600386901b1c1916600185901b178555620001d3565b600085815260208120601f198616915b82811015620002795788860151825594840194600190910190840162000258565b5085821015620002985787850151600019600388901b60f8161c191681555b5050505050600190811b01905550565b600082601f830112620002ba57600080fd5b81516001600160401b0380821115620002d757620002d762000135565b604051601f8301601f19908116603f0116810190828211818310171562000302576200030262000135565b81604052838152602092508660208588010111156200032057600080fd5b600091505b8382101562000344578582018301518183018401529082019062000325565b6000602085830101528094505050505092915050565b600080600080600080600060e0888a0312156200037657600080fd5b87516001600160401b03808211156200038e57600080fd5b6200039c8b838c01620002a8565b985060208a0151915080821115620003b357600080fd5b620003c18b838c01620002a8565b60408b015190985091506001600160a01b0382168214620003e157600080fd5b60608a015191965080821115620003f757600080fd5b50620004068a828b01620002a8565b9450506080880151925060a0880151915060c0880151905092959891949750929550565b61286f806200043a6000396000f3fe60806040526004361061024f5760003560e01c80638da5cb5b11610138578063bd32fb66116100b0578063e0df5b6f1161007f578063f2fde38b11610064578063f2fde38b14610691578063f4f3b200146106b1578063fdc52b9a146106d157600080fd5b8063e0df5b6f1461061b578063e985e9c51461063b57600080fd5b8063bd32fb6614610595578063c87b56dd146105b5578063c884ef83146105d5578063d5abeb011461060557600080fd5b80639da3f8fd11610107578063aa98e0c6116100ec578063aa98e0c61461054a578063accfa8f314610560578063b88d4fde1461057557600080fd5b80639da3f8fd14610510578063a22cb4651461052a57600080fd5b80638da5cb5b146104a45780639292caaf146104cf57806394129fa6146104e557806395d89b41146104fb57600080fd5b80633ccfd60b116101cb57806370a082311161019a5780637bb23e3a1161017f5780637bb23e3a1461045b5780637f3276bb14610471578063814c8c551461048457600080fd5b806370a0823114610426578063715018a61461044657600080fd5b80633ccfd60b146103aa57806342842e0e146103bf5780634e69d560146103df5780636352211e1461040657600080fd5b8063095ea7b31161022257806323b872dd1161020757806323b872dd14610355578063372f657c146103755780633c130d901461039557600080fd5b8063095ea7b31461031257806318160ddd1461033257600080fd5b806301ffc9a714610254578063023245d71461028957806306fdde03146102ab578063081812fc146102cd575b600080fd5b34801561026057600080fd5b5061027461026f366004612125565b6106f1565b60405190151581526020015b60405180910390f35b34801561029557600080fd5b506102a96102a4366004612142565b6107d6565b005b3480156102b757600080fd5b506102c061080a565b60405161028091906121c9565b3480156102d957600080fd5b506102ed6102e8366004612142565b61089c565b60405173ffffffffffffffffffffffffffffffffffffffff9091168152602001610280565b34801561031e57600080fd5b506102a961032d366004612205565b6108d2565b34801561033e57600080fd5b506103476108e1565b604051908152602001610280565b34801561036157600080fd5b506102a961037036600461222f565b6108f7565b34801561038157600080fd5b506102a961039036600461226b565b6109ed565b3480156103a157600080fd5b506102c0610c7d565b3480156103b657600080fd5b506102a9610d0b565b3480156103cb57600080fd5b506102a96103da36600461222f565b610d78565b3480156103eb57600080fd5b506103f4610d93565b60405160ff9091168152602001610280565b34801561041257600080fd5b506102ed610421366004612142565b610dcf565b34801561043257600080fd5b506103476104413660046122e0565b610dda565b34801561045257600080fd5b506102a9610e55565b34801561046757600080fd5b50610347600a5481565b6102a961047f36600461226b565b610e69565b34801561049057600080fd5b506102a961049f3660046122fb565b6110a2565b3480156104b057600080fd5b5060065473ffffffffffffffffffffffffffffffffffffffff166102ed565b3480156104db57600080fd5b50610347600e5481565b3480156104f157600080fd5b5061034761546081565b34801561050757600080fd5b506102c06110e8565b34801561051c57600080fd5b50600b546103f49060ff1681565b34801561053657600080fd5b506102a961054536600461232c565b6110f7565b34801561055657600080fd5b5061034760095481565b34801561056c57600080fd5b50610347611102565b34801561058157600080fd5b506102a9610590366004612426565b61111f565b3480156105a157600080fd5b506102a96105b0366004612142565b611136565b3480156105c157600080fd5b506102c06105d0366004612142565b611143565b3480156105e157600080fd5b506102746105f03660046122e0565b600d6020526000908152604090205460ff1681565b34801561061157600080fd5b5061034760085481565b34801561062757600080fd5b506102a96106363660046124a2565b6111ab565b34801561064757600080fd5b506102746106563660046124eb565b73ffffffffffffffffffffffffffffffffffffffff918216600090815260056020908152604080832093909416825291909152205460ff1690565b34801561069d57600080fd5b506102a96106ac3660046122e0565b6111bf565b3480156106bd57600080fd5b506102a96106cc3660046122e0565b611220565b3480156106dd57600080fd5b506102a96106ec366004612142565b61138e565b60007fffffffff0000000000000000000000000000000000000000000000000000000082167f80ac58cd00000000000000000000000000000000000000000000000000000000148061078457507fffffffff0000000000000000000000000000000000000000000000000000000082167f5b5e139f00000000000000000000000000000000000000000000000000000000145b806107d057507f01ffc9a7000000000000000000000000000000000000000000000000000000007fffffffff000000000000000000000000000000000000000000000000000000008316145b92915050565b6107de61139b565b6108073061080160065473ffffffffffffffffffffffffffffffffffffffff1690565b836113ee565b50565b6060600080546108199061251e565b80601f01602080910402602001604051908101604052809291908181526020018280546108459061251e565b80156108925780601f1061086757610100808354040283529160200191610892565b820191906000526020600020905b81548152906001019060200180831161087557829003601f168201915b5050505050905090565b60006108a78261152a565b5060008281526004602052604090205473ffffffffffffffffffffffffffffffffffffffff166107d0565b6108dd828233611589565b5050565b600060016007546108f291906125a0565b905090565b73ffffffffffffffffffffffffffffffffffffffff821661094c576040517f64a0ae92000000000000000000000000000000000000000000000000000000008152600060048201526024015b60405180910390fd5b6000610959838333611596565b90508373ffffffffffffffffffffffffffffffffffffffff168173ffffffffffffffffffffffffffffffffffffffff16146109e7576040517f64283d7b00000000000000000000000000000000000000000000000000000000815273ffffffffffffffffffffffffffffffffffffffff80861660048301526024820184905282166044820152606401610943565b50505050565b6008546007541115610a5b576040517f08c379a000000000000000000000000000000000000000000000000000000000815260206004820152601d60248201527f41737472613a2045786365656473206d6178696d756d20737570706c790000006044820152606401610943565b600b5460ff16600114610aca576040517f08c379a000000000000000000000000000000000000000000000000000000000815260206004820152601f60248201527f41737472613a2057686974656c697374207068617365206e6f74206f70656e006044820152606401610943565b336000908152600d602052604090205460ff1615610b44576040517f08c379a000000000000000000000000000000000000000000000000000000000815260206004820152601560248201527f41737472613a20416c7265616479206d696e74656400000000000000000000006044820152606401610943565b6040517fffffffffffffffffffffffffffffffffffffffff0000000000000000000000003360601b166020820152600090603401604051602081830303815290604052805190602001209050610bd1838380806020026020016040519081016040528093929190818152602001838360200280828437600092019190915250506009549150849050611713565b610c37576040517f08c379a000000000000000000000000000000000000000000000000000000000815260206004820152601460248201527f41737472613a20496e76616c69642070726f6f660000000000000000000000006044820152606401610943565b336000818152600d6020526040902080547fffffffffffffffffffffffffffffffffffffffffffffffffffffffffffffff00166001179055610c7890611729565b505050565b600c8054610c8a9061251e565b80601f0160208091040260200160405190810160405280929190818152602001828054610cb69061251e565b8015610d035780601f10610cd857610100808354040283529160200191610d03565b820191906000526020600020905b815481529060010190602001808311610ce657829003601f168201915b505050505081565b610d1361139b565b47610d3360065473ffffffffffffffffffffffffffffffffffffffff1690565b73ffffffffffffffffffffffffffffffffffffffff166108fc829081150290604051600060405180830381858888f193505050501580156108dd573d6000803e3d6000fd5b610c788383836040518060200160405280600081525061111f565b600b5460009060ff166001148015610dba5750615460600e54610db691906125b3565b4210155b15610dc55750600290565b50600b5460ff1690565b60006107d08261152a565b600073ffffffffffffffffffffffffffffffffffffffff8216610e2c576040517f89c62b6400000000000000000000000000000000000000000000000000000000815260006004820152602401610943565b5073ffffffffffffffffffffffffffffffffffffffff1660009081526003602052604090205490565b610e5d61139b565b610e67600061174a565b565b6008546007541115610ed7576040517f08c379a000000000000000000000000000000000000000000000000000000000815260206004820152601d60248201527f41737472613a2045786365656473206d6178696d756d20737570706c790000006044820152606401610943565b600b5460ff166001148015610efb5750615460600e54610ef791906125b3565b4210155b15610f2c57600b80547fffffffffffffffffffffffffffffffffffffffffffffffffffffffffffffff001660021790555b600b5460ff16600214610f9b576040517f08c379a000000000000000000000000000000000000000000000000000000000815260206004820152601a60248201527f41737472613a2046434653207068617365206e6f74206f70656e0000000000006044820152606401610943565b336000908152600d602052604090205460ff1615611015576040517f08c379a000000000000000000000000000000000000000000000000000000000815260206004820152601560248201527f41737472613a20416c7265616479206d696e74656400000000000000000000006044820152606401610943565b6040517fffffffffffffffffffffffffffffffffffffffff0000000000000000000000003360601b166020820152600090603401604051602081830303815290604052805190602001209050610bd183838080602002602001604051908101604052809392919081815260200183836020028082843760009201919091525050600a549150849050611713565b6110aa61139b565b600b80547fffffffffffffffffffffffffffffffffffffffffffffffffffffffffffffff001660ff83169081179091556001036108075742600e5550565b6060600180546108199061251e565b6108dd3383836117c1565b600042615460600e5461111591906125b3565b6108f291906125a0565b61112a8484846108f7565b6109e7848484846118be565b61113e61139b565b600955565b606061114e8261152a565b506000611159611ab5565b9050600081511161117957604051806020016040528060008152506111a4565b8061118384611ac4565b6040516020016111949291906125c6565b6040516020818303038152906040525b9392505050565b6111b361139b565b600c6108dd8282612645565b6111c761139b565b73ffffffffffffffffffffffffffffffffffffffff8116611217576040517f1e4fbdf700000000000000000000000000000000000000000000000000000000815260006004820152602401610943565b6108078161174a565b61122861139b565b6040517f70a08231000000000000000000000000000000000000000000000000000000008152306004820152819060009073ffffffffffffffffffffffffffffffffffffffff8316906370a0823190602401602060405180830381865afa158015611297573d6000803e3d6000fd5b505050506040513d601f19601f820116820180604052508101906112bb919061275f565b90508173ffffffffffffffffffffffffffffffffffffffff1663a9059cbb6112f860065473ffffffffffffffffffffffffffffffffffffffff1690565b6040517fffffffff0000000000000000000000000000000000000000000000000000000060e084901b16815273ffffffffffffffffffffffffffffffffffffffff9091166004820152602481018490526044016020604051808303816000875af115801561136a573d6000803e3d6000fd5b505050506040513d601f19601f820116820180604052508101906109e79190612778565b61139661139b565b600a55565b60065473ffffffffffffffffffffffffffffffffffffffff163314610e67576040517f118cdaa7000000000000000000000000000000000000000000000000000000008152336004820152602401610943565b73ffffffffffffffffffffffffffffffffffffffff821661143e576040517f64a0ae9200000000000000000000000000000000000000000000000000000000815260006004820152602401610943565b600061144c83836000611596565b905073ffffffffffffffffffffffffffffffffffffffff811661149e576040517f7e27328900000000000000000000000000000000000000000000000000000000815260048101839052602401610943565b8373ffffffffffffffffffffffffffffffffffffffff168173ffffffffffffffffffffffffffffffffffffffff16146109e7576040517f64283d7b00000000000000000000000000000000000000000000000000000000815273ffffffffffffffffffffffffffffffffffffffff80861660048301526024820184905282166044820152606401610943565b60008181526002602052604081205473ffffffffffffffffffffffffffffffffffffffff16806107d0576040517f7e27328900000000000000000000000000000000000000000000000000000000815260048101849052602401610943565b610c788383836001611b82565b60008281526002602052604081205473ffffffffffffffffffffffffffffffffffffffff908116908316156115d0576115d0818486611d4d565b73ffffffffffffffffffffffffffffffffffffffff811615611646576115fa600085600080611b82565b73ffffffffffffffffffffffffffffffffffffffff8116600090815260036020526040902080547fffffffffffffffffffffffffffffffffffffffffffffffffffffffffffffffff0190555b73ffffffffffffffffffffffffffffffffffffffff85161561168f5773ffffffffffffffffffffffffffffffffffffffff85166000908152600360205260409020805460010190555b60008481526002602052604080822080547fffffffffffffffffffffffff00000000000000000000000000000000000000001673ffffffffffffffffffffffffffffffffffffffff89811691821790925591518793918516917fddf252ad1be2c89b69c2b068fc378daa952ba7f163c4a11628f55a4df523b3ef91a4949350505050565b6000826117208584611dfd565b14949350505050565b60078054908190600061173b83612795565b91905055506108dd8282611e40565b6006805473ffffffffffffffffffffffffffffffffffffffff8381167fffffffffffffffffffffffff0000000000000000000000000000000000000000831681179093556040519116919082907f8be0079c531659141344cd1fd0a4f28419497f9722a3daafe3b4186f6b6457e090600090a35050565b73ffffffffffffffffffffffffffffffffffffffff8216611826576040517f5b08ba1800000000000000000000000000000000000000000000000000000000815273ffffffffffffffffffffffffffffffffffffffff83166004820152602401610943565b73ffffffffffffffffffffffffffffffffffffffff83811660008181526005602090815260408083209487168084529482529182902080547fffffffffffffffffffffffffffffffffffffffffffffffffffffffffffffff001686151590811790915591519182527f17307eab39ab6107e8899845ad3d59bd9653f200f220920489ca2b5937696c31910160405180910390a3505050565b73ffffffffffffffffffffffffffffffffffffffff83163b156109e7576040517f150b7a0200000000000000000000000000000000000000000000000000000000815273ffffffffffffffffffffffffffffffffffffffff84169063150b7a02906119339033908890879087906004016127cd565b6020604051808303816000875af192505050801561198c575060408051601f3d9081017fffffffffffffffffffffffffffffffffffffffffffffffffffffffffffffffe016820190925261198991810190612816565b60015b611a1b573d8080156119ba576040519150601f19603f3d011682016040523d82523d6000602084013e6119bf565b606091505b508051600003611a13576040517f64a0ae9200000000000000000000000000000000000000000000000000000000815273ffffffffffffffffffffffffffffffffffffffff85166004820152602401610943565b805181602001fd5b7fffffffff0000000000000000000000000000000000000000000000000000000081167f150b7a020000000000000000000000000000000000000000000000000000000014611aae576040517f64a0ae9200000000000000000000000000000000000000000000000000000000815273ffffffffffffffffffffffffffffffffffffffff85166004820152602401610943565b5050505050565b6060600c80546108199061251e565b60606000611ad183611e5a565b600101905060008167ffffffffffffffff811115611af157611af1612363565b6040519080825280601f01601f191660200182016040528015611b1b576020820181803683370190505b5090508181016020015b7fffffffffffffffffffffffffffffffffffffffffffffffffffffffffffffffff017f3031323334353637383961626364656600000000000000000000000000000000600a86061a8153600a8504945084611b2557509392505050565b8080611ba3575073ffffffffffffffffffffffffffffffffffffffff821615155b15611cf8576000611bb38461152a565b905073ffffffffffffffffffffffffffffffffffffffff831615801590611c0657508273ffffffffffffffffffffffffffffffffffffffff168173ffffffffffffffffffffffffffffffffffffffff1614155b8015611c45575073ffffffffffffffffffffffffffffffffffffffff80821660009081526005602090815260408083209387168352929052205460ff16155b15611c94576040517fa9fbf51f00000000000000000000000000000000000000000000000000000000815273ffffffffffffffffffffffffffffffffffffffff84166004820152602401610943565b8115611cf657838573ffffffffffffffffffffffffffffffffffffffff168273ffffffffffffffffffffffffffffffffffffffff167f8c5be1e5ebec7d5bd14f71427d1e84f3dd0314c0f7b2291e5b200ac8c7c3b92560405160405180910390a45b505b5050600090815260046020526040902080547fffffffffffffffffffffffff00000000000000000000000000000000000000001673ffffffffffffffffffffffffffffffffffffffff92909216919091179055565b611d58838383611f3c565b610c785773ffffffffffffffffffffffffffffffffffffffff8316611dac576040517f7e27328900000000000000000000000000000000000000000000000000000000815260048101829052602401610943565b6040517f177e802f00000000000000000000000000000000000000000000000000000000815273ffffffffffffffffffffffffffffffffffffffff8316600482015260248101829052604401610943565b600081815b8451811015611e3857611e2e82868381518110611e2157611e21612833565b6020026020010151612003565b9150600101611e02565b509392505050565b6108dd82826040518060200160405280600081525061202f565b6000807a184f03e93ff9f4daa797ed6e38ed64bf6a1f0100000000000000008310611ea3577a184f03e93ff9f4daa797ed6e38ed64bf6a1f010000000000000000830492506040015b6d04ee2d6d415b85acef81000000008310611ecf576d04ee2d6d415b85acef8100000000830492506020015b662386f26fc100008310611eed57662386f26fc10000830492506010015b6305f5e1008310611f05576305f5e100830492506008015b6127108310611f1957612710830492506004015b60648310611f2b576064830492506002015b600a83106107d05760010192915050565b600073ffffffffffffffffffffffffffffffffffffffff831615801590611ffb57508273ffffffffffffffffffffffffffffffffffffffff168473ffffffffffffffffffffffffffffffffffffffff161480611fca575073ffffffffffffffffffffffffffffffffffffffff80851660009081526005602090815260408083209387168352929052205460ff165b80611ffb575060008281526004602052604090205473ffffffffffffffffffffffffffffffffffffffff8481169116145b949350505050565b600081831061201f5760008281526020849052604090206111a4565b5060009182526020526040902090565b6120398383612046565b610c7860008484846118be565b73ffffffffffffffffffffffffffffffffffffffff8216612096576040517f64a0ae9200000000000000000000000000000000000000000000000000000000815260006004820152602401610943565b60006120a483836000611596565b905073ffffffffffffffffffffffffffffffffffffffff811615610c78576040517f73c6ac6e00000000000000000000000000000000000000000000000000000000815260006004820152602401610943565b7fffffffff000000000000000000000000000000000000000000000000000000008116811461080757600080fd5b60006020828403121561213757600080fd5b81356111a4816120f7565b60006020828403121561215457600080fd5b5035919050565b60005b8381101561217657818101518382015260200161215e565b50506000910152565b6000815180845261219781602086016020860161215b565b601f017fffffffffffffffffffffffffffffffffffffffffffffffffffffffffffffffe0169290920160200192915050565b6020815260006111a4602083018461217f565b803573ffffffffffffffffffffffffffffffffffffffff8116811461220057600080fd5b919050565b6000806040838503121561221857600080fd5b612221836121dc565b946020939093013593505050565b60008060006060848603121561224457600080fd5b61224d846121dc565b925061225b602085016121dc565b9150604084013590509250925092565b6000806020838503121561227e57600080fd5b823567ffffffffffffffff8082111561229657600080fd5b818501915085601f8301126122aa57600080fd5b8135818111156122b957600080fd5b8660208260051b85010111156122ce57600080fd5b60209290920196919550909350505050565b6000602082840312156122f257600080fd5b6111a4826121dc565b60006020828403121561230d57600080fd5b813560ff811681146111a457600080fd5b801515811461080757600080fd5b6000806040838503121561233f57600080fd5b612348836121dc565b915060208301356123588161231e565b809150509250929050565b7f4e487b7100000000000000000000000000000000000000000000000000000000600052604160045260246000fd5b600067ffffffffffffffff808411156123ad576123ad612363565b604051601f85017fffffffffffffffffffffffffffffffffffffffffffffffffffffffffffffffe0908116603f011681019082821181831017156123f3576123f3612363565b8160405280935085815286868601111561240c57600080fd5b858560208301376000602087830101525050509392505050565b6000806000806080858703121561243c57600080fd5b612445856121dc565b9350612453602086016121dc565b925060408501359150606085013567ffffffffffffffff81111561247657600080fd5b8501601f8101871361248757600080fd5b61249687823560208401612392565b91505092959194509250565b6000602082840312156124b457600080fd5b813567ffffffffffffffff8111156124cb57600080fd5b8201601f810184136124dc57600080fd5b611ffb84823560208401612392565b600080604083850312156124fe57600080fd5b612507836121dc565b9150612515602084016121dc565b90509250929050565b600181811c9082168061253257607f821691505b60208210810361256b577f4e487b7100000000000000000000000000000000000000000000000000000000600052602260045260246000fd5b50919050565b7f4e487b7100000000000000000000000000000000000000000000000000000000600052601160045260246000fd5b818103818111156107d0576107d0612571565b808201808211156107d0576107d0612571565b600083516125d881846020880161215b565b8351908301906125ec81836020880161215b565b01949350505050565b601f821115610c78576000816000526020600020601f850160051c8101602086101561261e5750805b601f850160051c820191505b8181101561263d5782815560010161262a565b505050505050565b815167ffffffffffffffff81111561265f5761265f612363565b6126738161266d845461251e565b846125f5565b602080601f8311600181146126c657600084156126905750858301515b7fffffffffffffffffffffffffffffffffffffffffffffffffffffffffffffffff600386901b1c1916600185901b17855561263d565b6000858152602081207fffffffffffffffffffffffffffffffffffffffffffffffffffffffffffffffe08616915b82811015612713578886015182559484019460019091019084016126f4565b508582101561274f57878501517fffffffffffffffffffffffffffffffffffffffffffffffffffffffffffffffff600388901b60f8161c191681555b5050505050600190811b01905550565b60006020828403121561277157600080fd5b5051919050565b60006020828403121561278a57600080fd5b81516111a48161231e565b60007fffffffffffffffffffffffffffffffffffffffffffffffffffffffffffffffff82036127c6576127c6612571565b5060010190565b600073ffffffffffffffffffffffffffffffffffffffff80871683528086166020840152508360408301526080606083015261280c608083018461217f565b9695505050505050565b60006020828403121561282857600080fd5b81516111a4816120f7565b7f4e487b7100000000000000000000000000000000000000000000000000000000600052603260045260246000fdfea164736f6c6343000817000a",
  "linkReferences": {},
  "deployedLinkReferences": {}
}